:020000040800F2
:10000000E004002005010008DB150008F7140008D3
:10001000D915000813020008D118000800000000DC
:10002000000000000000000000000000DF150008D4
:100030008902000800000000DD150008E115000835
:100040001F0100081F0100081F0100081F01000810
:100050001F0100081F0100081F0100081F01000800
:100060001F0100081F0100081F0100081F010008F0
:100070001F0100081F0100081F0100081F010008E0
:100080001F0100081F0100081F0100081F010008D0
:100090001F0100081F0100081F0100081F010008C0
:1000A0001F0100081F0100081F0100081F010008B0
:1000B0001F0100081F0100081F0100081F010008A0
:1000C0001F0100081F0100081F0100081F01000890
:1000D0001F0100081F010008C51800081F010008C3
:1000E0001F0100081F0100081F010008DFF810D0E1
:1000F00000F06EF8004800470D1C0008AFF30080C8
:10010000E00400200648804706480047FEE7FEE777
:10011000FEE7FEE7FEE7FEE7FEE7FEE7FEE7FEE7B7
:1001200043160008ED000008202A04DB203A21FADB
:1001300002F00021704721FA02F3D040C2F1200200
:100140009140084319467047D2B201E000F8012BF4
:10015000491EFBD270470022F6E710B513460A4647
:1001600004461946FFF7F0FF204610BD2DE9F05F69
:100170000546002092469B46884606468146402416
:100180001BE02846414647462246FFF7CDFF53462F
:100190005A46C01A914110D311461846224600F023
:1001A00029F82D1A67EB01084F462246012000214D
:1001B00000F020F817EB00094E41201EA4F10104C5
:1001C000DFDC484631462A464346BDE8F09F000042
:1001D000064C074D06E0E06840F0010394E8070094
:1001E00098471034AC42F6D3FFF784FFD41C0008C4
:1001F000F41C0008202A04DB203A00FA02F1002057
:1002000070479140C2F1200320FA03F31943904054
:100210007047FEE700B58BB0002005900690079070
:1002200000900190029003900490012008900E200D
:1002300009906946054800F093F808B100F025F8E8
:10024000024800F0DDF90BB000BD000018000020EE
:1002500000B587B001230090069300200290CDE9FD
:10026000030106AB6946074800F011F810B1012000
:1002700007B000BD034800F0EAF80328FAD10020D7
:10028000F6E7000018000020704772B6FEE7F0B5F0
:1002900090F820500468A468012D05D0022D03D0E9
:1002A000416A41F4802157E014F0406F01D1E5002C
:1002B0004FD5C4F301640125A5401D608D684FF43E
:1002C000C0739DB1CE6835434E6845EAC6050668E1
:1002D00003EB0417F5514FF4C275076805EB0415DD
:1002E0000E697E51097D012905D009E00E88CD688F
:1002F00045EA4655EBE701684E5946F480764E5183
:100300001179D579567941EA056195792D0445EA47
:10031000062529434FF4C676056806EB0416A95155
:100320001178D57841EA0561957852782D0445EA2F
:10033000022211434FF4C475026805EB04155151B4
:10034000006803EB0411425842F0010242500020C1
:10035000F0BD416A41F4001141620120F0BD00008E
:1003600010B590F820300268012B07D0022B05D081
:10037000416A41F480214162012010BDD2F800029F
:1003800040F00100C2F80002087D00F01F030120C8
:100390009840D2F81C328343C2F81C32CB69B3B9FF
:1003A000D2F80C328343C2F80C328C894B6864F368
:1003B0001F434C6902EBC404C4F840320C890B683B
:1003C00064F31F434C6902EBC404C4F84432CB69A4
:1003D000012B16D1D2F80C320343C2F80C320C8830
:1003E0004B6864F31F434C6902EBC404C4F8403209
:1003F0000C89CB6864F31F434C6902EBC404C4F856
:1004000044328B69002BD2F804320FD053EA000338
:10041000C2F804320B69002BD2F8143208D003431F
:10042000C2F81432096A012904D008E08343EFE7D7
:100430008343F5E7D2F81C120143C2F81C12D2F82C
:10044000000220F00100C2F80002002010BD0246A8
:10045000002092F82010012901D002290CD1116846
:100460008A68520100D501208A68120100D5401C1B
:100470008968C90000D5401C704770B5040003D0DE
:1004800094F8200010B104E0012070BD204600F077
:1004900081F82068016841F00101016000F03CFA38
:1004A0000546052604E000F037FA401B0A2811D85B
:1004B00020684068C007F6D02068016821F002017A
:1004C000016000F029FA05460BE000F025FA401B18
:1004D0000A2806D9606A40F40030606284F820601F
:1004E000D2E7206840688007EFD4207E012820688A
:1004F00001683DD021F080010160607E0128206804
:10050000016838D021F040010160A07E01282068F8
:10051000016833D021F020010160E07E01282068CD
:1005200001682ED041F010010160207F0128206871
:10053000016829D021F008010160607F012820684E
:10054000016824D021F004010160D4E902010843CC
:10055000D4E90412114308436168491E0843216825
:10056000C86100206062012084F82000002070BD76
:1005700041F08001C0E741F04001C5E741F02001B2
:10058000CAE721F01001CFE741F00801D4E741F0BC
:100590000401D9E710B586B00021009101910291C4
:1005A000039100681349884222D11348C16941F080
:1005B0000071C161C16901F000710491816941F06C
:1005C0000401816180690D4C00F0040004904FF437
:1005D000006000906946204600F0AEF8A01400903C
:1005E00002200190032003906946204600F0A4F801
:1005F00006B010BD00640040001002400008014039
:1006000070B5044690F82000012804D0606A40F4D8
:100610000020606218E0022084F820002068016851
:1006200021F00101016000F077F905460EE000BFFE
:1006300000F072F9401B0A2808D9606A40F40030C3
:100640006062052084F82000012070BD20684068A9
:10065000C007EDD1606270BD10B590F82110002286
:10066000022905D00421816380F82020012010BDDB
:1006700001680B6823F00E030B6001680B6823F020
:1006800001030B6090F84030C46B012101FA03F3C1
:10069000636080F8211080F82020104610BD000013
:1006A00010B590F821100024022903D004218163A1
:1006B00001243DE001680A6822F00E020A60016828
:1006C0000A6822F001020A601A4A0168914201D1C7
:1006D000012121E0174A1432914201D110211BE07F
:1006E000144A2832914201D1891515E0114A3C3251
:1006F000914201D189140FE00E4A5032914202D149
:100700004FF4803108E00B4A6432914202D14FF439
:10071000801101E04FF08071064A083A51600121D2
:1007200080F82110002180F82010416B01B188472A
:10073000204610BD080002402DE9F84FDFF8B891BF
:100740000024A9F1040B23460F2709F1040AABF199
:10075000040EC9E00125A5402A40AA427DD1674E7A
:10076000D1F804C0ACEB0608B44532D014DCBCF1BF
:10077000030F3AD009DCBCF1000F2AD0BCF1010F05
:100780001CD0BCF1020F31D11DE0BCF1110F17D00C
:10079000BCF1120F2AD119E0B8F5881F19D006DC78
:1007A000B8F5803F15D0B8F5801F1FD111E0B8F51E
:1007B000001F0ED0B8F5041F18D10AE0CB6815E071
:1007C000CB681B1D12E0CB6808330FE0CB680C33FD
:1007D0000CE08B682BB1012B4FF0080303D045616F
:1007E00004E0042302E0056100E00023FF2A01D8B1
:1007F000064601E000F104064FEA840501D9A5F19F
:100800002005D6F8008007FA05FC28EA0C0803FA50
:1008100005F548EA0508C6F800804D68ED0062D588
:10082000374DAE6946F00106AE61AD6924F00306AE
:1008300005F001050095334D06EB050CDCF808507A
:10084000A607360F07FA06F825EA0805DFF8B8808C
:10085000404503D14FF0000817E044E0DFF8AC80DA
:10086000404502D14FF001080FE0DFF8A480404579
:1008700002D14FF0020808E0DFF89880404502D12D
:100880004FF0030801E04FF0040808FA06F848EAC0
:100890000508CCF808804D68D9F80060ED024D4697
:1008A00001D5164300E096432E604D68DAF80060EB
:1008B000AD02554601D5164300E096432E604D68C3
:1008C000DBF80060AD035D4601D5164300E09643BA
:1008D0002E604D68DEF80060ED03754601D51643C5
:1008E00000E096432E60641C0D682A46E5407FF4C4
:1008F00031AFBDE8F88F000008040140000011107E
:10090000001002400000014000080140000C0140BE
:100910000010014000140140014880687047000049
:100920000400002002488168027811448160704709
:1009300004000020074810B5016841F01001016073
:10094000032000F075F80F2000F006F800F024F8FE
:10095000002010BD0020024070B50D4D04464FF43C
:100960007A712878B1FBF0F00A490968B1FBF0F020
:1009700000F0DCFA48B9102C07D200222146501EA4
:1009800000F036F800206C6070BD012070BD0000E2
:1009900004000020100000200C4808B5816941F0D7
:1009A00001018161816901F001010091C16941F09A
:1009B0008051C161C06900F08050009004484168D6
:1009C00021F0E06141F00071416008BD001002407B
:1009D00000000140002809DB00F01F0201219140C6
:1009E0004009800000F1E020C0F8001170470000CD
:1009F000F0B40E4B1B680C46C3F30223C3F107058A
:100A0000042D00D90425191D072901D2002300E077
:100A1000DB1E012606FA05F1491E214099409E4041
:100A2000761E16403143F0BC00F064BF0CED00E0D0
:100A3000064900F0070208684FF6FF03184040EA35
:100A40000220034A10430860704700000CED00E0EC
:100A50000000FA052DE9F0470F46050061D0434E2E
:100A6000306800F00700B84209D2306820F0070073
:100A700038433060306800F00700B84251D1286830
:100A80003B4C810712D5400703D5606840F4E06015
:100A900060602878000703D5606840F460506060AB
:100AA0006068A96820F0F000084360602878C007FB
:100AB00028D06868012810D02168022810D0890742
:100AC00000292EDA616821F0030101436160FFF71C
:100AD00023FF804641F288390DE021688903EFE762
:100AE0008901EDE7FFF718FFA0EB0801494502D99E
:100AF0000320BDE8F0876068696800F00C00B0EB87
:100B0000810FEFD1306800F00700B8420BD9306890
:100B100020F0070038433060306800F00700B8422A
:100B200001D00120E5E72878400705D56068E9682D
:100B300020F4E060084360602878000706D560680C
:100B4000296920F4605040EAC100606000F038F884
:100B50006168084AC1F30311515CC8400649086046
:100B600006480068FFF7F8FE0020C2E700200240B8
:100B700000100240BA1C00081000002008000020ED
:100B80000448054900684968044AC1F30221515CE0
:100B9000C84070471000002000100240CA1C000826
:100BA0000448054900684968044AC1F3C221515C00
:100BB000C84070471000002000100240CA1C000806
:100BC0000E4A51680E4801F00C03042B11D0082B7B
:100BD0000FD10C48C1F38343C903C05C0AD55168E7
:100BE000084AC1F34041921E515C054A5043B0FB94
:100BF000F1F070470449484370470000001002407C
:100C000000127A00AA1C000800093D002DE9F84FE7
:100C1000040070D02078C04DC00749D06868C0F388
:100C20008100012807D06868C0F38100022809D13B
:100C30006868C00306D52868800339D56068002835
:100C4000E7D035E06068B0F5803F0BD010B1B0F56B
:100C5000A02F11D0286820F480302860286820F464
:100C6000802002E0286840F480302860606890B1FD
:100C7000FFF752FE06460AE0286840F4802028600C
:100C8000F0E700BFFFF748FE801B642873D8286890
:100C90008003F7D50CE0FFF73FFE064605E000BFF6
:100CA000FFF73AFE801B6428F0D828688003F7D449
:100CB00020789A4E80074FF001094FF0000839D58F
:100CC000686810F00C0F07D06868C0F38100022834
:100CD00009D16868C00306D42868800714D5206944
:100CE000012808D110E02069B0B1C6F80090FFF7E4
:100CF00013FE074605E00AE1FFF70EFEC01B0228BF
:100D0000C4D828688007F7D52868616920F0F80002
:100D100040EAC10028600DE0C6F80080FFF7FCFD46
:100D2000074604E0FFF7F8FDC01B022823D8286817
:100D30008007F7D4207800072CD57948A169D9B16C
:100D4000C0F80090FFF7E8FD074604E0FFF7E4FD78
:100D5000C01B02280FD8686A8007F7D571484FF486
:100D6000FA510068B0FBF1F0009000BF0098411EFE
:100D70000091FAD20EE080E0C0F80080FFF7CCFDD1
:100D8000074604E0FFF7C8FDC01B022875D8686A53
:100D90008007F7D42078400760D5E8690027C000B5
:100DA00008D4E86940F08050E861E869012700F064
:100DB000805000905C480168C90513D401688346DF
:100DC00041F480710160FFF7A7FD824606E000BF95
:100DD000FFF7A2FDA0EB0A0064284ED8DBF8000064
:100DE000C005F5D5E06801280AD008B1052813D060
:100DF000286A20F001002862286A20F0040002E03E
:100E0000286A40F001002862E06841F2883B98B10E
:100E1000FFF782FD82460BE0286A40F0040028625A
:100E2000EEE700BFFFF778FDA0EB0A0159455AD85D
:100E3000286A8007F6D50CE0FFF76EFD824605E0D4
:100E4000FFF76AFDA0EB0A0159454CD8286A8007D4
:100E5000F6D41FB1E86920F08050E861E06988B3FA
:100E60006968C1F38101022944D00228C6F8608074
:100E700004D0FFF751FD044638E034E0FFF74CFDA5
:100E8000074604E0FFF748FDC01B02282BD828685E
:100E90008001F7D4206AB0F5803F05D16868A16869
:100EA00020F4003008436860D4E908010843696809
:100EB00021F4741108436860C6F86090FFF72CFDB8
:100EC000044606E025E000BFFFF726FD001B0228D0
:100ED00009D828688001F7D51BE000BFFFF71CFD8B
:100EE000001B022802D90320BDE8F88F2868800182
:100EF000F4D40EE00128F7D06868226A00F480314B
:100F0000914204D1616A00F47010884201D001203E
:100F1000EAE70020E8E7000000100240000042423B
:100F200080044242100000200070004010B5401EB6
:100F3000B0F1807F01D3012010BD4FF0E02460614B
:100F40000F21601700F0D6FC0020A061072020616F
:100F5000002010BD70477047F8B501680446086866
:100F6000CA684B6910F00F0F4FF0000559D003F01D
:100F7000010602F49077374365D0C10705D0D1054B
:100F800003D5616C41F001016164410705D5D907C2
:100F900003D0616C41F002016164810705D5D90776
:100FA00003D0616C41F004016164010707D502F0D0
:100FB0002001314303D0616C41F008016164616C30
:100FC00000293AD0800604D5900602D5204600F0CC
:100FD00068FB20684069616CC0F38010090700D489
:100FE00060B3204600F036FB20684069400621D5FA
:100FF0002068143050E8001F21F0400140E8001242
:10100000002AF5D1E06BA8B16D494163E06BFFF7B1
:1010100047FB002811D0E06B416B01B0BDE8F04008
:10102000084783060FD593060DD52046BDE8F84046
:1010300000F037BB2046FFF78EFFF8BD2046FFF7D4
:101040008AFF6564F8BD266B2023012E7CD1C6067D
:101050007AD5D60678D508684868009048694FF078
:101060000206400640D5E16B086840680004000CA9
:10107000E8D0A28D8242E5D9E085886920282DD06C
:1010800020680C3050E8001F21F4807140E8001205
:10109000002AF5D12068143050E8001F21F001012A
:1010A00040E80012002AF5D12068143050E8001FF3
:1010B00021F0400140E80012002AF5D184F84230C6
:1010C000256320680C3050E8001F21F0100140E833
:1010D0000012002AF5D1E06BFFF7BEFA6663A08D1F
:1010E000E18D401A81B22AE0A08DE18D401A81B2D3
:1010F000E08D0028A6D00029A4D022680C3252E846
:10110000000F20F4907042E80007002FF5D120680E
:10111000143050E8002F22F0010240E80027002F91
:10112000F5D184F84230256320680C3050E8002F58
:1011300022F0100240E80023002BF5D16663204620
:10114000FFF708FFF8BDFFE705062BD5150629D5E3
:1011500094F841002128F5D1A068B0F5805F01D155
:101160002069B0B1206A411C216221680078486082
:10117000E08C401E0004000CE084E3D12068C168CC
:1011800021F08001C1602068C16841F04001C16068
:10119000D8E7206A0088C0F308004860206A801CF5
:1011A0002062E5E74006CDD55006CBD5CA6820467B
:1011B00022F04002CA6084F8413000F09BF9C1E798
:1011C0004516000870B5040004D094F841000025CD
:1011D00010B106E0012070BD84F84050204600F0B8
:1011E00023F8242084F841002068C16821F40051CC
:1011F000C160204600F0B6FA2068016921F49041F0
:1012000001612068416921F02A0141612068C168BB
:1012100041F40051C1606564202084F8410084F8E5
:1012200042006563002070BD70B586B00024009454
:101230000194029403942B4E03682B49022003224D
:101240002A4DB34221D18B6943F480438B618B6972
:1012500003F4804304938B6943F004038B61896931
:10126000039201F0040104910102CDE900106946E6
:101270002846FFF761FA2815CDE90004694628469B
:101280000294FFF759FA06B070BD194EB342FAD175
:10129000CB6943F40033CB61CB6903F4003304938F
:1012A0008B6943F004038B618969039201F00401A7
:1012B00004910421CDE9001069462846FFF73CFA65
:1012C0000820CDE90004694628460294FFF734FA65
:1012D000002211462620FFF78BFB2620FFF77AFB22
:1012E000D1E7000000380140001002400008014032
:1012F0000044004090F84230202B01D0022070477B
:1013000021B11AB10023036300F088BA01207047AD
:101310002DE9FC470068384988426BD1384C374882
:10132000A17A00786054A07A401CC1B2A1722278E0
:101330000020AF2A09D0A07202B03148BDE8F047C2
:1013400001222E495430FFF7D5BF092902D3A072DC
:101350002CA00EE00229EFD96578AA1E042AF6D245
:10136000EA1C9142E8D36719B978FA2904D0A0722F
:1013700029A000F0AFFADFE7804600900190AF208F
:101380008DF8000029A000F0A5FA21782AA000F02D
:10139000A1FA617828A000F09DFA0026E94608E04D
:1013A000A019817809EB0600417023A000F092FAA1
:1013B000761CAE42F4DBB9781FA000F08BFA1FA0B8
:1013C00000F088FA6A460821B420FEF741FF70B9A0
:1013D0001BA000F07FFA00254E4617A0715D00F0BB
:1013E00079FA6D1C082DF8DB18A000F073FA84F868
:1013F0000A80A1E7BDE8FC8700440040000000200F
:101400004000002064617461206C656E206572721A
:101410006F720D0A000000006461746120746169DC
:101420006C206572726F720D0A0000007561727433
:1014300020726563763A0000255820000D0A0000EE
:1014400063616E2073656E643A0000000D0A0D0A38
:10145000000000002DE9F843044690F8410098464A
:1014600016460D46202802D00220BDE8F88385B13B
:101470007EB100206064212084F84100FFF74CFA1F
:10148000A6848146E684A0682027B0F5805F02D05C
:1014900003E00120E9E7206910B12E4600250EE0A7
:1014A00000260CE08021204600F0D3F9A8B9C6B18F
:1014B00016F8010B21684860E08C401EE084E08C47
:1014C0004B464FF00002CDF800800028EAD14FF0E3
:1014D0004001204600F0BDF940B184F8417003207E
:1014E000C3E735F8020BC0F30800E3E784F8417066
:1014F0000020BAE77047FEE70F4810B50D490160BC
:101500000421416000214FF400228160C0E90312F0
:101510004FF4E0024261017641768176C17601772F
:101520004177FEF7AAFF002803D0BDE81040FEF780
:10153000ACBE10BD0064004018000020094808B58A
:10154000816941F020018161816901F020010091F0
:10155000816941F004018161806900F0040000901C
:1015600008BD0000001002400C4810B50A49016097
:101570004FF4E1314160002181600C22C160C0E97B
:1015800004128161C161FFF71DFE002803D0BDE890
:101590001040FEF77ABE10BD003801404C0000201C
:1015A0000C4810B50A4901604FF4E1314160002157
:1015B00081600C22C160C0E904128161C161FFF742
:1015C00001FE002803D0BDE81040FEF75EBE10BD4E
:1015D0000044004094000020FEE7FEE7704770479B
:1015E000FFF7A0B930B58FB028216846FEF7B3FDEC
:1015F00014210AA8FEF7AFFD01210804CDE900106F
:101600000024029402250491CDE907504FF4E01024
:1016100009906846FFF7FAFA08B172B6FEE70F20A4
:10162000CDE90A054FF48060CDE90C4002210AA8FB
:101630000E94FFF70FFA002801D072B6FEE70FB044
:1016400030BD704710B5406A0021C185C184FFF7E5
:1016500082FC10BD01680C3151E8002F22F4907219
:1016600041E80023002BF5D10168143151E8002F27
:1016700022F0010241E80023002BF5D1016B012982
:1016800009D101680C3151E8002F22F0100241E825
:101690000023002BF5D1202180F8421000210163A6
:1016A000704708B590F84210222901D0022008BDE9
:1016B00082684FF480539A4201D1016921B1816A55
:1016C0009A421BD04AB10AE00268816A5268C2F3AA
:1016D00008020A80816A891C08E0026972B1026806
:1016E000526802F07F020A70816A491C8162C18DD2
:1016F000491E0904090CC18503D01BE00268526829
:10170000F1E70168CA6822F02002CA600168CA686D
:1017100022F48072CA6001684A6922F001024A61BB
:10172000202180F8421000214163026B012A03D07E
:10173000FFF7EEFD002008BD016301680C3151E8A0
:10174000002F22F0100241E80023002BF5D10168A0
:101750000A68D20602D50A6849680091818DFFF7B0
:10176000F9FBE7E770B5044600680169E26821F417
:101770004051114301612169A06808436169084330
:101780002168CA6841F20C639A430243CA60206828
:101790004169A26921F44071114341611E492068E9
:1017A000884202D1FFF7FCF901E0FFF7E9F900EB0D
:1017B000C00101EB0012606864218000B2FBF0F30D
:1017C000B3FBF1F36FF018067343B2FBF0F5B2FB15
:1017D000F0F605EB8305322303EB0515B5FBF1F5B8
:1017E000B6FBF1F605F0F00505EB0615B2FBF0F6D9
:1017F000B2FBF0F0B0FBF1F06FF01802504306EBD3
:10180000800003EB0010B0FBF1F0216800F00F0046
:101810002844886070BD00000038014081628285E4
:10182000C28500214164222180F84210016921B162
:101830000168CA6842F48072CA6001684A6942F06D
:1018400001024A610068C16841F02001C1600020C6
:1018500070472DE9F843984617460D460446089E02
:1018600024E0701C22D0FFF757F8A0EB0800B0422C
:101870001AD8CEB12068C168490717D5802D15D078
:10188000402D13D00168C94309070FD40168002512
:10189000406800902046FFF7DDFE0820606484F871
:1018A00040500120BDE8F8830320FBE72068006872
:1018B00035EA000004D00020B842D2D00020F1E781
:1018C0000120F9E70148FFF747BB00009400002022
:1018D000FEE700000FB4054B10B503A9044A0298B7
:1018E00000F028F810BC5DF814FB0000F51B0008A0
:1018F000140000200907090E002804DB00F1E02095
:1019000080F80014704700F00F0000F1E02080F82C
:10191000141D704702E008C8121F08C1002AFAD13E
:1019200070477047002001E001C1121F002AFBD15F
:10193000704700002DE9FF4F8DB09B460F460446CF
:10194000002606E025280BD05A460F999047641CC4
:10195000761C20780028F5D111B03046BDE8F08F14
:101960000025A8460122984900E0054314F8013FEC
:10197000203B02FA03F00842F7D120782E2817D135
:1019800014F8010F45F004052A280ED06FF02F023D
:101990002078A0F1300109290AD808EB880102EB70
:1019A000410100EB0108641CF2E757F8048B641C4A
:1019B00020786C280DD004DC4C2812D06A2811D174
:1019C00004E074280DD07A280CD10AE045F4001503
:1019D00007E0617845F48015814202D1641C05F569
:1019E0008015641C2078692844D008DC0028B3D016
:1019F000582867D063280FD0642808D13AE07028AF
:101A000065D0732812D075285AD078285AD05A46F3
:101A10000F999047761CD5E017F8040B8DF800005D
:101A200000208DF80100E946012003E057F8049BEF
:101A30004FF0FF3069074FF0000501D40AE06D1C3C
:101A400045450DDA8542FADB19F805100029F6D173
:101A500006E06D1C8542FCDB19F805100029F8D161
:101A60002E4404E019F8010B5A460F9990476D1E59
:101A7000F8D2A7E00A200021CDE90801C5F3025001
:101A800002280CD001CFC117021E71F100020CDA3E
:101A90000023D0EB030063EB01012D2208E0FF1DC2
:101AA00027F00707F7E80201EEE72A0504D52B2205
:101AB0008DF8282001223CE0EA073AD02022F7E7FF
:101AC0000A2000E010200021CDE9080107E01020E5
:101AD000002145F00405CDE908014FF00808C5F3E1
:101AE0000250022810D001CF00214FF0000A2A072F
:101AF00020D52278702A0DD0DDE908C38CF0100CB7
:101B00005CEA030C0CD015E0FF1D27F00707F7E88F
:101B10000201EAE740228DF828204FF0010A0CE08C
:101B200050EA010306D030238DF828308DF82920A3
:101B3000022292462278582A04D024A20DF12009CC
:101B40000B9209E026A2F9E7DDE90823FEF70EFB78
:101B50000B9B9B5C09F8013D50EA0102F4D1ADEB0F
:101B6000090020300890680701D44FF00108089957
:101B7000884503DD0898A8EB000000E000208046BF
:101B8000002506E00AA85A46405D0F9990476D1C53
:101B9000761C5545F6DB04E030205A460F999047F5
:101BA000761CB8F10001A8F10108F5DC05E019F890
:101BB000010B5A460F999047761C0899481E0890C9
:101BC0000029F4DC641CC4E60928010030313233FA
:101BD0003435363738396162636465660000000069
:101BE0003031323334353637383941424344454653
:101BF0000000000013B54FF6FF730122694602484A
:101C0000FFF728FC00981CBD4C000020FEF792FE58
:101C1000FFF7E8FCFFF792FCFFF76EFCFFF7A4FC70
:101C2000FFF7BEFCFEF7F6FA00F034F804A0FFF769
:101C300051FEFF2326220CA11548FFF70BFCFEE7FF
:101C400075617274313A4338543620756920646185
:101C5000746120726563762673656E6420746F20EC
:101C60007A6574360D0A000075617274323A433831
:101C7000543620756920646174612072656376262C
:101C800073656E6420746F207A6574360D0A0000E7
:101C900094000020012202490248FFF72BBB0000FC
:101CA0000000002094000020010202030405060742
:101CB00008090A0B0C0D0E0F1010000000000000A8
:101CC00000000102030406070809000000000102E9
:101CD00003040000F41C00080000002018000000AD
:101CE000141900080C1D000818000020C80400008A
:101CF000241900080000000001000000100000008E
:0C1D00000000000000127A00000000004B
:04000005080000ED02
:00000001FF
