:020000040800F2
:1080000080F400204981000803A50008ED9F0008C6
:1080100001A5000853830008C3AA0008000000005F
:1080200000000000000000000000000009A8000897
:10803000C58400080000000005A500080BA8000882
:108040006381000863810008638100086381000880
:108050006381000863810008638100086381000870
:108060006381000863810008638100086381000860
:108070006381000863810008638100086381000850
:108080006381000863810008638100086381000840
:108090006381000863810008638100086381000830
:1080A0006381000863810008638100086381000820
:1080B0006381000863810008638100086381000810
:1080C0006381000863810008638100086381000800
:1080D00063810008638100086381000863810008F0
:1080E00063810008638100086381000863810008E0
:1080F00063810008638100086381000863810008D0
:1081000063810008638100086381000863810008BF
:108110006381000863810008A1A80008638100084A
:10812000638100086381000863810008638100089F
:10813000DFF810D000F0D0F8004800473591020871
:10814000AFF3008080F400200648804706480047CF
:10815000FEE7FEE7FEE7FEE7FEE7FEE7FEE7FEE7F7
:10816000FEE7FEE791A80008318100082DE9F05FE5
:108170000546002092469B46884606468146402496
:108180001BE0284641464746224600F020F8534669
:108190005A46C01A914110D311461846224600F0A3
:1081A0008CF82D1A67EB01084F462246012000216A
:1081B00000F083F817EB00094E41201EA4F10104E2
:1081C000DFDC484631462A464346BDE8F09F202A78
:1081D00004DB203A21FA02F00021704721FA02F371
:1081E000D040C2F12002914008431946704710B5B3
:1081F000431A934209D28318881803E010F8011D2E
:1082000003F8011D521EF9D210BD40EA01039B077D
:1082100003D009E008C9121F08C0042AFAD203E0FB
:1082200011F8013B00F8013B521EF9D210BDD2B249
:1082300001E000F8012B491EFBD270470022F6E74F
:1082400010B513460A4604461946FFF7F0FF2046CC
:1082500010BD421C10F8011B0029FBD1801A704789
:1082600010B5002200E0521C835C8C5CA34201D15B
:10827000002BF8D1D8B2E1B2401A10BD034611F874
:10828000012B00F8012B002AF9D11846704730B5B0
:108290000B46014600202022012409E021FA02F5C4
:1082A0009D4205D303FA02F5491B04FA02F528445E
:1082B000151EA2F10102F1DC30BD202A04DB203AB8
:1082C00000FA02F1002070479140C2F1200320FA29
:1082D00003F3194390407047064C074D06E0E068F1
:1082E00040F0010394E8070098471034AC42F6D3FD
:1082F000FFF722FF306105085061050870B58C1842
:1083000010F8015B15F0070301D110F8013B2A11A9
:1083100006D110F8012B03E010F8016B01F8016B96
:108320005B1EF9D12B0705D40023521E0DD401F892
:10833000013BFAE710F8013BCB1A921C03E013F85B
:10834000015B01F8015B521EF9D5A142D8D3002090
:1083500070BDFEE700B58BB0002005900690079039
:1083600000900190029003900490012008900E204C
:1083700009906946054800F033F908B100F0A3F808
:10838000024800F0F3FA0BB000BD0000E00200204C
:108390000EB5002000900190694602A800F07AF81E
:1083A00000281ED002990120B4291BD0B32918D16E
:1083B0009DF80010BE2914D19DF80110AD2910D1EF
:1083C0009DF80210BE290CD19DF80310EF2908D1A9
:1083D0009DF80410012904D12649087026A002F056
:1083E00071FB0EBD9DF80010AF29FAD19DF8011068
:1083F000012918D002291BD003291ED0042921D01D
:10840000052924D0062927D00729EAD1BDF8021072
:108410009DF8042049BA090441EA02221549343181
:108420000A6008710EBD13499DF80220091DF7E787
:1084300010499DF802200C31F2E70E499DF8022008
:108440001431EDE70B499DF802201C31E8E709499A
:108450009DF802202431E3E7BDF802109DF80420C6
:1084600049BA090441EA02229DF805100A4301496C
:108470002C31D5E73C0000205B7470207365727668
:1084800065725D20476574206F746120666C61675A
:108490000D0A000030B50D46044687B0002108489B
:1084A00000F016F9002808D02B466A46002104483F
:1084B00000F01FF900982060049807B030BD00005C
:1084C000E0020020704772B6FEE700000649002077
:1084D000C8610648016941F004010161016941F088
:1084E00040010161704700000804002000200240A4
:1084F000064A0021D16106490A6942F002020A6176
:108500004861086940F04000086170470804002095
:1085100000200240044B0022DA61044A136943F050
:10852000010313610180704708040020002002400D
:1085300014480022C168CB06134904D5CA6942F029
:108540000202CA611022C3685B0705D5CB6943F0FC
:108550000103CB6142F00402C369DB0707D0CB699A
:1085600043F00403CB61C16921F00101C161A2F5AF
:108570008071013901D0C2607047C16921F00101E9
:10858000C1617047002002400804002070B5054614
:1085900000F0DEFB0646114C09E0681C07D025B14F
:1085A00000F0D6FB801BA84201D9032070BDE06813
:1085B000C007F2D1E068800601D52020E060E068C5
:1085C000C00605D4E069C00702D1E068400703D5C2
:1085D000FFF7AEFF012070BD002070BD00200240FB
:1085E00010B590F820300268012B07D0022B05D07F
:1085F000416A41F480214162012010BDD2F800029D
:1086000040F00100C2F80002087D00F01F030120C5
:108610009840D2F81C328343C2F81C32CB69B3B9FC
:10862000D2F80C328343C2F80C328C894B6864F365
:108630001F434C6902EBC404C4F840320C890B6838
:1086400064F31F434C6902EBC404C4F84432CB69A1
:10865000012B16D1D2F80C320343C2F80C320C882D
:108660004B6864F31F434C6902EBC404C4F8403206
:108670000C89CB6864F31F434C6902EBC404C4F853
:1086800044328B69002BD2F804320FD053EA000336
:10869000C2F804320B69002BD2F8143208D003431D
:1086A000C2F81432096A012904D008E08343EFE7D5
:1086B0008343F5E7D2F81C120143C2F81C12D2F82A
:1086C000000220F00100C2F80002002010BD0000EE
:1086D0000246002092F82030012B01D0022B05D158
:1086E000106821B1D0F8100000F003007047C06896
:1086F000FAE770B590F82040012C05D0022C03D089
:10870000416A41F4802128E0046809B32469A40780
:1087100020D04FF4D874056804EB01142D5915F0DE
:108720000405956005682D591AD0ED085560056857
:108730002C5904F00204D4604FF4DA74056804EB99
:1087400001142E5906F00F06082E0CD308250DE053
:10875000E468DCE7416A41F400114162012070BD28
:108760006D0D1560E3E72D5905F00F0515610568DE
:108770002D59C5F30725956105682C59240C5461C2
:108780004FF4DC72046802EB0112A4581C700468F8
:10879000A458240A5C700468A458240C9C700468D3
:1087A000A258120EDA704FF4DE72046802EB011266
:1087B000A4581C710468A458240A5C710468A45865
:1087C000240C9C710468A258120EDA71006829B159
:1087D000016941F020010161002070BDC16841F0D4
:1087E0002001C160F8E770B5040003D094F82000C0
:1087F00010B104E0012070BD204600F081F820682F
:10880000016841F00101016000F0A2FA0546052669
:1088100004E000F09DFA401B0A2811D82068406847
:10882000C007F6D02068016821F00201016000F065
:108830008FFA05460BE000F08BFA401B0A2806D998
:10884000606A40F40030606284F82060D2E72068FB
:1088500040688007EFD4207E0128206801683DD061
:1088600021F080010160607E01282068016838D015
:1088700021F040010160A07E01282068016833D00A
:1088800021F020010160E07E0128206801682ED0DF
:1088900041F010010160207F01282068016829D083
:1088A00021F008010160607F01282068016824D060
:1088B00021F004010160D4E902010843D4E9041263
:1088C000114308436168491E08432168C8610020BC
:1088D0006062012084F82000002070BD41F080011A
:1088E000C0E741F04001C5E741F02001CAE721F0AF
:1088F0001001CFE741F00801D4E741F00401D9E7C6
:1089000010B586B000210091019102910391006899
:108910001349884222D11348C16941F00071C161F5
:10892000C16901F000710491816941F00401816124
:1089300080690D4C00F0040004904FF4006000903A
:108940006946204600F002F9A01400900220019030
:10895000032003906946204600F0F8F806B010BDE9
:1089600000640040001002400008014070B5044659
:1089700090F82000012804D0606A40F40020606272
:1089800018E0022084F820002068016821F001012D
:10899000016000F0DDF905460EE000BF00F0D8F9F7
:1089A000401B0A2808D9606A40F400306062052044
:1089B00084F82000012070BD20684068C007EDD118
:1089C000606270BD70B5044600F0C2F90546601CD7
:1089D00002D004480078044400F0BAF9401BA042D9
:1089E000FAD370BD2C0000202DE9F047054626483B
:1089F0000F460126017E01290FD001218146017613
:108A00002868DFF888804CF25034022808D0A2464B
:108A10002046FFF7BBFDA8B131E00220BDE8F0879A
:108A20002046FFF7B3FD08BB0120FFF74FFD2046AE
:108A3000FFF7ACFDD8F81010064621F00401C8F885
:108A400010101CE04FF0FF303860AC6811E0204699
:108A5000FFF74EFD5046FFF799FDD8F810100600BD
:108A600021F00201C8F8101001D03C6007E004F5C5
:108A70000064D5E9020100EBC120A042E7D8002143
:108A800089F818103046C9E7080400200020024089
:108A90000348016941F08001016100207047000036
:108AA000002002402DE9F05F07461C48884600245C
:108AB000017E15461E46012909D001218146017615
:108AC0004CF2503A5046FFF761FD18B122E0022007
:108AD000BDE8F09F012F02D0022F00D00427D3461B
:108AE000DFF83CA0220128463146FFF770FB81B237
:108AF00008EB4400FFF70EFD5846FFF747FDDAF894
:108B0000102022F00102CAF8102018B9641CE4B247
:108B1000BC42E7D3002289F81820D9E708040020D6
:108B200000200240064900200A69120607D5054ABE
:108B30004A60054A4A600969090600D50120704764
:108B40000020024023016745AB89EFCD2DE9F84FA6
:108B5000DFF8C8910024A9F1040B23460F2709F17F
:108B6000040AABF1040ED1E00125A54006EA050296
:108B7000AA4276D1DFF8A8C14E68A6EB0C0866457C
:108B80002BD00DDC032E34D005DC36B3012E19D0EA
:108B9000022E2FD11BE0112E16D0122E2AD119E051
:108BA000B8F5881F19D006DCB8F5803F15D0B8F5A8
:108BB000801F1FD111E0B8F5001F0ED0B8F5041FBB
:108BC00018D10AE0CB6815E0CB681B1D12E0CB681A
:108BD00008330FE0CB680C330CE08B682BB1012B12
:108BE0004FF0080303D0456104E0042302E005616F
:108BF00000E00023FF2A01D8064601E000F1040648
:108C00004FEA840501D9A5F12005D6F8008007FABE
:108C100005FC28EA0C0803FA05F548EA0508C6F839
:108C200000804D68ED0070D53E4DAE6946F00106FE
:108C3000AE61AD6924F0030605F0010500953A4DDB
:108C400006EB050CDCF80850A607360F07FA06F805
:108C500025EA0805DFF8D480404503D14FF000082D
:108C600025E052E0DFF8C880404502D14FF001080E
:108C70001DE0DFF8C080404502D14FF0020816E049
:108C8000DFF8B480404502D14FF003080FE0DFF871
:108C9000AC80404502D14FF0040808E0DFF8A08026
:108CA000404502D14FF0050801E04FF0060808FAF0
:108CB00006F848EA0508CCF808804D68D9F8006045
:108CC000ED024D4601D5164300E096432E604D68F7
:108CD000DAF80060AD02554601D5164300E0964330
:108CE0002E604D68DBF80060AD035D4601D516438C
:108CF00000E096432E604D68DEF80060ED03754697
:108D000001D5164300E096432E60641C0A6816469F
:108D1000E2407FF429AFBDE8F88F0000080401406D
:108D20000000111000100240000001400008014046
:108D3000000C0140001001400014014000180140E7
:108D4000001C01400AB1016170470904FBE7000003
:108D500001488068704700002C00002002488168AC
:108D600002781144816070472C000020074810B53C
:108D7000016841F010010160032000F075F80F2038
:108D800000F006F800F024F8002010BD002002409A
:108D900070B50D4D04464FF47A712878B1FBF0F0B0
:108DA0000A490968B1FBF0F000F0E7FE48B9102C61
:108DB00007D200222146501E00F036F800206C60D9
:108DC00070BD012070BD00002C0000203800002084
:108DD0000C4808B5816941F001018161816901F0A8
:108DE00001010091C16941F08051C161C06900F089
:108DF000805000900448416821F0E06141F000712A
:108E0000416008BD0010024000000140002809DB5D
:108E100000F01F02012191404009800000F1E02094
:108E2000C0F8001170470000F0B40E4B1B680C46F0
:108E3000C3F30223C3F10705042D00D90425191D2E
:108E4000072901D2002300E0DB1E012606FA05F106
:108E5000491E214099409E40761E16403143F0BC89
:108E600001F054BE0CED00E0064900F0070208686E
:108E70004FF6FF03184040EA0220034A10430860FF
:108E8000704700000CED00E00000FA05BFF34F8FC3
:108E900005480168054A01F4E06111430160BFF330
:108EA0004F8F00BFFDE700000CED00E00400FA0565
:108EB000014901200862704700000E4210B50146CA
:108EC0000020284C04292FD00BDC012930D00229A6
:108ED00029D100F06BF96168C1F38131491C490067
:108EE0001FE0082920D010291DD161682268D20115
:108EF00019D51D48C1F38342C903805C0AD5616856
:108F0000194AC1F34041921E515C184AB2FBF1F17B
:108F1000484301E0164948436168490203D44000D0
:108F20000321B0FBF1F010BDBDE8104000F04EB9D8
:108F3000226AC2F30121012903D1920701D5C80396
:108F400010BD022905D1626A920702D549F6404058
:108F500010BD0329FCD121688903F9D54FF22440C3
:108F600010BD000000100240CCE6020800127A009A
:108F700000093D002DE9F84305460078354CC0074F
:108F800054D0E0690026C00008D4E06940F0805069
:108F9000E061E069012600F0805000902E480168F1
:108FA000C90512D40168804641F480710160FFF761
:108FB000CFFE074605E000BFFFF7CAFEC01B6428CE
:108FC00023D8D8F80000C005F6D5206A10F4407008
:108FD00021D0A98801F4407181421CD0206A1F4928
:108FE000012220F440700A6000220A602062C0075B
:108FF00011D0FFF7ADFE074641F2883808E000BF08
:10900000FFF7A6FEC11B414502D90320BDE8F88346
:10901000206A8007F4D5206A696820F4407008430C
:1090200020621EB1E06920F08050E061287880075E
:1090300005D56068A96820F440400843606028783E
:10904000C00605D56068696920F480000843606047
:109050000020DBE700100240007000404004424264
:109060002DE9F0470F46050061D0434E306800F00F
:109070000700B84209D2306820F00700384330605A
:10908000306800F00700B84251D128683B4C810796
:1090900012D5400703D5606840F4E060606028782E
:1090A000000703D5606840F4605060606068A9689C
:1090B00020F0F000084360602878C00728D0686876
:1090C000012810D02168022810D0890700292EDA43
:1090D000616821F0030101436160FFF739FE8046BA
:1090E00041F288390DE021688903EFE78901EDE756
:1090F000FFF72EFEA0EB0801494502D90320BDE889
:10910000F0876068696800F00C00B0EB810FEFD168
:10911000306800F00700B8420BD9306820F0070033
:1091200038433060306800F00700B84201D00120B9
:10913000E5E72878400705D56068E96820F4E06035
:10914000084360602878000706D56068296920F424
:10915000605040EAC100606000F038F86168084A79
:10916000C1F30311515CC840064908600648006815
:10917000FFF70EFE0020C2E7002002400010024070
:10918000DCE60208380000203000002004480549D1
:1091900000684968044AC1F30221515CC840704725
:1091A0003800002000100240ECE60208044805499F
:1091B00000684968044AC1F3C221515CC840704745
:1091C0003800002000100240ECE602080E4A516808
:1091D0000E4801F00C03042B11D0082B0FD10C48C2
:1091E000C1F38343C903C05C0AD55168084AC1F37F
:1091F0004041921E515C054A5043B0FBF1F070476C
:1092000004494843704700000010024000127A00F1
:10921000BAE6020800093D002DE9F84F040070D0BD
:109220002078C04DC00749D06868C0F3810001288C
:1092300007D06868C0F38100022809D16868C003BC
:1092400006D52868800339D560680028E7D035E066
:109250006068B0F5803F0BD010B1B0F5A02F11D0F1
:10926000286820F480302860286820F4802002E0FC
:10927000286840F480302860606890B1FFF768FD8E
:1092800006460AE0286840F480202860F0E700BF26
:10929000FFF75EFD801B642873D828688003F7D52C
:1092A0000CE0FFF755FD064605E000BFFFF750FD57
:1092B000801B6428F0D828688003F7D420789A4E61
:1092C00080074FF001094FF0000839D5686810F0A9
:1092D0000C0F07D06868C0F38100022809D16868C4
:1092E000C00306D42868800714D52069012808D156
:1092F00010E02069B0B1C6F80090FFF729FD0746DD
:1093000005E00AE1FFF724FDC01B0228C4D8286845
:109310008007F7D52868616920F0F80040EAC100AD
:1093200028600DE0C6F80080FFF712FD074604E054
:10933000FFF70EFDC01B022823D828688007F7D44A
:10934000207800072CD57948A169D9B1C0F80090E0
:10935000FFF7FEFC074604E0FFF7FAFCC01B0228FB
:109360000FD8686A8007F7D571484FF4FA51006842
:10937000B0FBF1F0009000BF0098411E0091FAD2BE
:109380000EE080E0C0F80080FFF7E2FC074604E052
:10939000FFF7DEFCC01B022875D8686A8007F7D487
:1093A0002078400760D5E8690027C00008D4E86944
:1093B00040F08050E861E869012700F0805000909B
:1093C0005C480168C90513D40168834641F4807183
:1093D0000160FFF7BDFC824606E000BFFFF7B8FC66
:1093E000A0EB0A0064284ED8DBF80000C005F5D5D4
:1093F000E06801280AD008B1052813D0286A20F0B7
:1094000001002862286A20F0040002E0286A40F087
:1094100001002862E06841F2883B98B1FFF798FCB0
:1094200082460BE0286A40F004002862EEE700BFA5
:10943000FFF78EFCA0EB0A0159455AD8286A80072D
:10944000F6D50CE0FFF784FC824605E0FFF780FCD0
:10945000A0EB0A0159454CD8286A8007F6D41FB101
:10946000E86920F08050E861E06988B36968C1F379
:109470008101022944D00228C6F8608004D0FFF799
:1094800067FC044638E034E0FFF762FC074604E07E
:10949000FFF75EFCC01B02282BD828688001F7D498
:1094A000206AB0F5803F05D16868A16820F40030DB
:1094B00008436860D4E908010843696821F474111D
:1094C00008436860C6F86090FFF742FC044606E077
:1094D00025E000BFFFF73CFC001B022809D82868E4
:1094E0008001F7D51BE000BFFFF732FC001B02280C
:1094F00002D90320BDE8F88F28688001F4D40EE07B
:109500000128F7D06868226A00F48031914204D1C2
:10951000616A00F47010884201D00120EAE700205F
:10952000E8E700000010024000004242800442428E
:109530003800002000700040024850F8210080B23E
:1095400070470000006C0040024800EB810091B2BF
:1095500001607047006C0040F8B505004FF0000056
:1095600016460C46009006D02CB1002269462846CB
:1095700000F019F808B10120F8BD287B2070E87BC5
:10958000E070697B6170A97BA17056B100F0C4FFE7
:10959000E070607800F0C0FF6070A07800F0BCFF61
:1095A000A0700020F8BD2DE9F04791460C465FEA17
:1095B00000084AD084B3D8F800004068400744D47B
:1095C000404601F047F84FF461620546B0FBF2F106
:1095D000B0FBF2F302FB13503C23B0FBF3F0B5FBFE
:1095E000F2F6607002FB1650B0FBF3F203FB1200C0
:1095F000A070182931D31820B1FBF0F7B1FBF0F2BD
:1096000000FB12102070404601F01DF8411C04D0F0
:10961000A84202D9461B02E017E04FF0FF36A7EB45
:10962000071000EB4000C0EB001005EBC015294609
:10963000404601F05EF840B9701C01D0711900E09D
:109640003146404601F041F810B10120BDE8F087F5
:109650003946404600F06BFF00E02170B9F1000F81
:109660000BD0207800F058FF2070607800F054FF95
:109670006070A07800F050FFA0700020E6E70000C6
:1096800070B5040003D0607C002610B105E0012015
:1096900070BD2674204600F03DF80220607420461C
:1096A00000F00AF9042550BB204600F097FF30BBBC
:1096B0002068416821F007014160A06820B114488A
:1096C000016821F0010101601148001F0168A268D2
:1096D00021F46071114301606068411C04D10120D4
:1096E000FFF7ECFB58B1401E2268C0F303419160C4
:1096F000216880B2C860204600F08AFF08B1657416
:10970000C5E7E67301206073A0736074002070BD2C
:10971000306C004008B50068084988420DD1FFF759
:10972000C7FB0748C16941F00061C161C0690549D3
:1097300000F0006000900120086008BD0028004093
:10974000001002403C0442422DE9F0410D46040065
:109750003BD0C5B3207C01283AD04FF0010884F8F3
:10976000108002206074E87872B300F0CCFEE073E1
:10977000687800F0C8FE6073A87800F0C4FEA0739B
:10978000C2B2617BE07B00F075FF20732870204639
:1097900000F060FF4FF46161B0FBF1F10025182982
:1097A0002DD91822B1FBF2F1A1EB011101EB41011E
:1097B000C1EB011100EBC1163146204600F099FFC4
:1097C0000427C8B90BE000E004E00120BDE8F08107
:1097D0000220FBE7E07368786073A878CFE7204643
:1097E00000F031FF411C0AD0B04208D206490144C2
:1097F000204600F06AFF10B167742574E5E784F82D
:10980000118025740020E1E7805101002DE9F0412D
:109810000D46040024D01DB3207C012823D04FF036
:10982000010884F81080022060742878EAB100F002
:109830006AFE4FF4616100FB01F6687800F063FE98
:10984000C0EB001006EB8006A87800F05CFE35182F
:109850002946204600F04DFF0026042710BB0FE0EC
:109860000120BDE8F0810220FBE74FF4616148432D
:109870006978C1EB011100EB8100A9784518E7E791
:109880002068416821F005014160204600F0DBFEC0
:10989000411C0AD0A84208D206490144204600F0E3
:1098A00014FF10B167742674DAE784F81180267407
:1098B0000020D6E78051010070B504000AD020686E
:1098C000416821F008014160FFF742FA05464FF474
:1098D0007A7608E0012070BDFFF73AFA401BB042EB
:1098E00001D9032070BD206840680007F4D500202E
:1098F00070BD70B5040009D0606A002540B12561D3
:109900006561A56294F8510040B10CE0012070BD82
:109910006068B0F5827FF4D0E561F2E784F85050DA
:10992000204600F03FF8022084F8510020680168CA
:1099300021F040010160A088218900F4827001F4C7
:1099400004410843A18901F400610843217C01F02E
:1099500002010843217D01F001010843218B01F43C
:1099600000710843217F01F03801084394F820106A
:1099700001F080010843218D01F400510843216862
:109980000860A069042101EA10402168486020684D
:10999000C16921F40061C1616565012084F851004D
:1099A000002070BD30B585B000240094019402946D
:1099B000039400681449884223D11448816941F412
:1099C00080518161816901F480510491816941F084
:1099D0000401816180690E4D00F004000490A02014
:1099E0000090022001900320039069462846FFF76B
:1099F000ADF84020CDE90004694628460294FFF7FF
:109A0000A5F805B030BD0000003001400010024054
:109A1000000801402DE9F84F984616468A4604464C
:109A2000FFF796F9814694F8510001281ED1BAF14A
:109A3000000F73D0002E71D094F85000012815D07B
:109A4000012784F85070032084F8510000256565D3
:109A5000C4F830A0A686E686A563A587E587656479
:109A60002564A068B0F5004F03D00CE00220BDE8EB
:109A7000F88F2068016821F04001016020680168CA
:109A800041F48041016020680168490603D40168FF
:109A900041F040010160E068B0F5006F606803D0FC
:109AA00048B3012E27D047E008B1012E1FD1206B0B
:109AB00021680088C86006E020688168890709D5A8
:109AC000216B0988C160206B801C2063E08E401EE2
:109AD000E0860CE0FFF73CF9A0EB0901414503D318
:109AE000B8F1FF3F03D035E0B8F1000F32D0E08E7F
:109AF0000028E1D123E0206B21680078087306E09C
:109B00002068816889070AD5216B09780173206B69
:109B1000401C2063E08E401EE0860DE02BE0FFF746
:109B200017F9A0EB0901414503D3B8F1FF3F03D07A
:109B300010E0B8F1000F0DD0E08E0028E0D14A46C9
:109B40004146204600F0E9FD08B120206065A0688C
:109B500030B109E084F8517084F85050032086E752
:109B60002068C1688068009084F8517004F8505FE4
:109B700060680028F3D0012079E710B5401EB0F1ED
:109B8000807F01D3012010BD4FF0E02460610F21E0
:109B9000601700F0BBFF0020A061072020610020BB
:109BA00010BD70477047000070B590F83C20012A46
:109BB0002CD0012480F83C40022280F83D2003682C
:109BC0005A689D6822F070060A6832435A60104B4A
:109BD00002689A420ED00F4B9A420BD0B2F1804FDE
:109BE00008D00D4B9A4205D00C4B9A4202D00C4B38
:109BF0009A4204D1496825F080031943916080F8A6
:109C00003D40002180F83C10084670BD022070BD28
:109C1000002C0140003401400004004000080040D6
:109C2000000C004010B5040003D094F83D0010B1C2
:109C300007E0012010BD002084F83C00204600F021
:109C40001FF8022084F83D00211D206800F02EFE40
:109C5000012084F8460084F83E0084F83F0084F830
:109C6000400084F8410084F8420084F8430084F8FE
:109C7000440084F8450084F83D00002010BD000039
:109C800008B500680B49884212D10B48C16941F000
:109C90001001C161C069002200F01000009011465F
:109CA0003620FFF7C1F8BDE808403620FFF7AEB810
:109CB00008BD0000001000400010024090F83D1068
:109CC000012901D001207047022180F83D10016870
:109CD000CA6842F00102CA6000680E4988420ED08C
:109CE0000D4988420BD0B0F1804F08D00B49884213
:109CF00005D00B49884202D00A49884204D18168C4
:109D000001F00701062903D0016841F0010101605B
:109D100000207047002C0140003401400004004046
:109D200000080040000C004070472DE9F041044657
:109D30000068C66805694FF00007A90713D5B10789
:109D400011D5F91E01610120207720688069800704
:109D5000204602D0FFF7E8FF04E000F07EF820463E
:109D600000F07CF82777680716D5700714D52168AE
:109D70006FF004000861022020772068806910F4E9
:109D8000407F204602D0FFF7CFFF04E000F065F8E7
:109D9000204600F063F82777280715D5300713D53C
:109DA00021686FF008000861042020772068C069EE
:109DB0008007204602D0FFF7B7FF04E000F04DF81F
:109DC000204600F04BF82777E80616D5F00614D5A4
:109DD00021686FF010000861082020772068C069B2
:109DE00010F4407F204602D0FFF79EFF04E000F011
:109DF00034F8204600F032F82777E80708D0F0075B
:109E000006D021686FF001000861204600F028F8B4
:109E1000280608D5300606D521686FF08000086155
:109E20002046FFF7BEFE680608D5700606D52168F5
:109E30006FF040000861204600F01CF8A8060AD523
:109E4000B00608D521686FF0200008612046BDE803
:109E5000F041FFF7A7BEBDE8F081704770470000F2
:109E600000680349884202D101201EF03FBC7047C0
:109E700000100040704770B5040004D094F8410011
:109E8000002510B106E0012070BD84F84050204646
:109E900000F024F8242084F841002068C16821F4EF
:109EA0000051C160204600F077FD2068016921F46F
:109EB000904101612068416921F02A0141612068D7
:109EC000C16841F40051C1606564202084F84100FC
:109ED00084F842006563002070BD000030B585B095
:109EE0000024009401940294039400681449884269
:109EF00024D11448816941F480418161816901F470
:109F000080410491816941F00401816180690E4DB5
:109F100000F0040004904FF40070009002200190C3
:109F20000320039069462846FEF710FE2815CDE968
:109F30000004694628460294FEF708FE05B030BDCD
:109F40000038014000100240000801402DE9F843AC
:109F5000044690F84100984616460D46202802D047
:109F60000220BDE8F88385B17EB100206064212025
:109F700084F84100FEF7ECFEA6848146E684A068E2
:109F80002027B0F5805F02D003E00120E9E72069D7
:109F900010B12E4600250EE000260CE08021204660
:109FA00000F056FDA8B9C6B116F8010B216848604B
:109FB000E08C401EE084E08C4B464FF00002CDF870
:109FC00000800028EAD14FF04001204600F040FD1B
:109FD00040B184F841700320C3E735F8020BC0F3A9
:109FE0000800E3E784F841700020BAE7FEE71CB5FB
:109FF000040A8DF800408DF80100100A8DF8020067
:10A00000080A8DF804008DF80510180A8DF806006E
:10A010008DF803208DF807302A2000F0EDF8042198
:10A02000684600F015F92B2000F0E6F8042101A89D
:10A0300000F00EF92C2000F0DFF81CBD70B5141AEA
:10A040005D1A641C6D1CA4B2ADB2049EFFF7CFFF75
:10A050006C4361003046BDE8704000F0F9B8000084
:10A0600010B5644C002201212046FEF76BFE6420EF
:10A07000FEF7A8FC012211462046FEF763FE64208D
:10A08000FEF7A0FC012204212046FEF75BFE6420BF
:10A09000FEF798FC112000F0AFF87820FEF792FC54
:10A0A000F02000F0A9F8C32000F0BAF8F02000F08A
:10A0B000A3F8962000F0B4F8362000F09DF8282090
:10A0C00000F0AEF83A2000F097F8052000F0A8F86C
:10A0D000E82000F091F8402000F0A2F8822000F083
:10A0E0009FF8072000F09CF8182000F099F827202E
:10A0F00000F096F80A2000F093F8B62000F090F8EF
:10A10000332000F08DF8C52000F076F8272000F00D
:10A1100087F8C22000F070F8A72000F081F8E02056
:10A1200000F06AF8F02000F07BF8012000F078F8E9
:10A13000062000F075F80F2000F072F8122000F0F1
:10A140006FF81D2000F06CF8362000F069F85420FC
:10A1500000F066F8442000F063F80C2000F060F88E
:10A16000182000F05DF8162000F05AF8132000F0D7
:10A1700057F8152000F054F8E12000F03DF8F020E9
:10A1800000F04EF8012000F04BF8052000F048F8F0
:10A190000A2000F045F80B2000F042F8072000F0FC
:10A1A0003FF8322000F03CF8442000F039F8442019
:10A1B00000F036F80C2000F033F8182000F030F8EA
:10A1C000172000F02DF8132000F02AF8162000F0D8
:10A1D00027F8F02000F010F83C2000F021F8F020E3
:10A1E00000F00AF8692000F01BF8BDE810402920B3
:10A1F00000F002B80008014070B5084C0546002286
:10A2000002212046FEF79EFD284600F009F8204670
:10A21000BDE8704001220221FEF794BD0008014014
:10A2200031B5094C002208212046FEF78BFD64233E
:10A23000012269460548FFF7EDFB0122082120466F
:10A24000FEF780FD38BD0000000801401C0300201F
:10A2500070B50A4E0D460446002208213046FEF72E
:10A2600071FDAAB2642321460548FFF7D3FB3046AF
:10A27000BDE8704001220821FEF764BD00080140DE
:10A280001C0300200F4810B50D49016004214160F6
:10A2900000214FF400228160C0E903124FF4E00274
:10A2A0004261017641768176C17601774177FEF78A
:10A2B0009AFA002803D0BDE81040FEF704B910BD9B
:10A2C00000640040E00200202DE9F04385B0002644
:10A2D00030480096019602960396816941F040014C
:10A2E0008161816901F040010491816941F01001AF
:10A2F0008161816901F010010491816941F00401DB
:10A300008161816901F004010491816941F00801D2
:10A3100081618069DFF8808000F0080004900122EC
:10A3200020214046FEF70EFDDFF8709001221F212C
:10A330004846FEF707FD01242027CDE900740225D9
:10A3400069464046CDE90245FEF700FC1F20CDE9F5
:10A35000000469464846CDE90245FEF7F7FBCDE922
:10A36000004602940E4C69462046FEF7EFFBCDE90D
:10A370000075694620460395FEF7E8FB09484168E9
:10A3800021F4406141F0E06141F40061416005B0B9
:10A39000BDE8F083001002400018014000080140B1
:10A3A000000C0140000001407CB5002001900090AD
:10A3B00020481F4901604FF0FF3141604FF4807128
:10A3C0008160FFF75DF908B1FEF77DF801211948BA
:10A3D000FFF7B2F84AF2A005A84228D00E208DF867
:10A3E000040016248DF8054010208DF80600002288
:10A3F00001A91048FFF70AFA08B1FEF764F8012036
:10A400008DF8000003208DF801008DF8024019201E
:10A410008DF80300002269460648FFF795F908B158
:10A42000FEF751F82A4601210248FFF78DF87CBD5E
:10A430000028004008030020104810B50E490160B4
:10A440004FF48271416000218160C1604FF400725D
:10A450000161C0E905120822C0E907214162816259
:10A460000A21C162FFF745FA002803D0BDE8104079
:10A47000FEF729B810BD0000003001401C03002089
:10A480001CB500240F4800940D4901940160472138
:10A49000C0E9011440F2E731C16080218161FFF71A
:10A4A000C1FB08B1FEF70FF8009469460548019416
:10A4B000FFF77AFB002801D0FEF705F81CBD00006D
:10A4C00000100040740300200C4810B50A490160D8
:10A4D0004FF4E1314160002181600C22C160C0E98C
:10A4E00004128161C161FFF7C6FC002803D0BDE8FA
:10A4F0001040FDF7E8BF10BD00380140BC0300204C
:10A50000FEE7FEE77047010901EB810100F00F0053
:10A5100000EB4100C0B27047002102E00A38C0B22F
:10A52000491C0A28FAD2090740EA116070472DE950
:10A53000F04104460025C07B627BA37B42E0012AF8
:10A5400016D0032A14D0052A12D0072A10D0082AC0
:10A550000ED00A2A0CD00C2A0AD0042A10D0062ABF
:10A560000ED0092A0CD00B2A0AD0022A0DD028E0DE
:10A570001F2B0CD30C2A05D101221346401C20E0CE
:10A580001E2B04D30123521C1BE01C2B02D203F10F
:10A59000010316E011D183B29E0710D16426B3FBEC
:10A5A000F6F706FB173636B94FF4C876B3FBF6F765
:10A5B00006FB17331BB91D2303E01D2B01D103221A
:10A5C00001236D1C8D42BAD3D1B2E0736173DAB24C
:10A5D000A27300F04FF82073BDE8F08170B5044617
:10A5E000FEF7B6FB05464FF47A7606E0FEF7B0FBC1
:10A5F000401BB04201D9032070BD2068406880062E
:10A60000F4D52068416841F010014160002070BD20
:10A6100070B504460068416821F010014160FEF702
:10A6200097FB05464FF47A7607E000BFFEF790FBF4
:10A63000401BB04201D9032070BD206840688006ED
:10A64000F4D5002070BD0168086A496A89B241EA00
:10A6500000407047006881698AB2C1698BB2816924
:10A6600089B28A4203D0C06961F31F40704743EA50
:10A6700002407047F0B56424C1EBC1030927A5006F
:10A68000072603EB01130329B3FBF7F100F5FA608A
:10A69000114401440AD2401EB0FBF4F201EB9001D8
:10A6A000B0FBF5F0891A0844001D08E0B0FBF4F295
:10A6B00001EB9001B0FBF5F0891A0844801CB0FB57
:10A6C000F6F106FB1100C0B2F0BD70B50D460646AE
:10A6D0000024FFF783FF48B93168280C086231680D
:10A6E000A8B248623046FFF793FF00B1012420462C
:10A6F00070BD70B50D4606460024FFF76FFF48B9E0
:10A700003168280C88613168A8B2C8613046FFF70B
:10A710007FFF00B10124204670BDF8B515460E46F6
:10A720000B46009204460122022100F011F840B9C4
:10A730003346002280212046009500F009F80028C9
:10A7400004D0606D40F0200060650320F8BD00007B
:10A750002DE9F8431E46914688460446089DFEF7BB
:10A76000F7FA401B351AFEF7F3FA0746254800684A
:10A77000C0F3CB30684338E0701C37D0FEF7E8FAFE
:10A78000C01BA84203D215B1009860B32CE020682A
:10A79000416821F0E00141606068B0F5827F0BD133
:10A7A000A068B0F5004F02D0B0F5806F04D12068EA
:10A7B000016821F040010160A06AB0F5005F09D195
:10A7C0002068016821F4005101602068016841F4AB
:10A7D00000510160012084F85100002084F85000ED
:10A7E0000320BDE8F8830025401E009020688168A2
:10A7F00038EA010004D000214945BDD10020F0E72E
:10A800000121F9E7380000207047FEF7A7BA70B5BC
:10A8100096B028216846FDF711FD14210AA8FDF71E
:10A820000DFD18210FA8FDF709FD012405200025C5
:10A830000090CDE902544FF4803001900226049438
:10A84000CDE907604FF4E01009906846FEF7E4FC9C
:10A8500008B172B6FEE70F20CDE90A064FF480601A
:10A86000CDE90C5002210AA80E95FEF7F9FB08B1BC
:10A8700072B6FEE74FF48070CDE90F400FA8FEF7E7
:10A8800079FB002801D072B6FEE716B070BD00005B
:10A8900002490148086070470080000808ED00E0A8
:10A8A0000148FFF742BA000074030020F0B50268C7
:10A8B000204C214D214E224F224B4FF0804CA04284
:10A8C00009D0984207D0604505D0A84203D0B042D5
:10A8D00001D0B84204D122F0700E4A6842EA0E025A
:10A8E000A04209D0984207D0604505D0A84203D0C5
:10A8F000B04201D0B84203D122F44075CA682A435D
:10A900004D6922F080022A4302608A68C2620A68A6
:10A910008262A04201D0984201D1096901630121FC
:10A9200041610169C90703D0016921F00101016199
:10A93000F0BD0000002C0140000400400008004071
:10A94000000C00400034014001680C3151E8002F38
:10A9500022F4907241E80023002BF5D101681431F4
:10A9600051E8002F22F0010241E80023002BF5D12D
:10A97000016B012909D101680C3151E8002F22F047
:10A98000100241E80023002BF5D1202180F842106D
:10A99000002101637047000070B50446006801693A
:10A9A000E26821F44051114301612169A068084324
:10A9B000616908432168CA6841F20C639A43024303
:10A9C000CA6020684169A26921F440711143416164
:10A9D0001E492068884202D1FEF7E8FB01E0FEF73D
:10A9E000D5FB00EBC00101EB001260686421800020
:10A9F000B2FBF0F3B3FBF1F36FF018067343B2FB55
:10AA0000F0F5B2FBF0F605EB8305322303EB0515F9
:10AA1000B5FBF1F5B6FBF1F605F0F00505EB061513
:10AA2000B2FBF0F6B2FBF0F0B0FBF1F06FF0180201
:10AA3000504306EB800003EB0010B0FBF1F02168FF
:10AA400000F00F002844886070BD0000003801400D
:10AA50002DE9F843984617460D460446089E24E023
:10AA6000701C22D0FEF774F9A0EB0800B0421AD88F
:10AA7000CEB12068C168490717D5802D15D0402D6B
:10AA800013D00168C94309070FD401680025406845
:10AA900000902046FFF758FF0820606484F840507B
:10AAA0000120BDE8F8830320FBE72068006835EA51
:10AAB000000004D00020B842D2D00020F1E70120ED
:10AAC000F9E7FEE70FB4054B10B503A9044A029855
:10AAD00001F036FB10BC5DF814FB0000155F0108A7
:10AAE000BC0200200FB4084B10B504A902AA0398B9
:10AAF00001F026FB044602A9002001F0C2FC20461A
:10AB000010BC5DF814FB000083C400080907090E9F
:10AB1000002804DB00F1E02080F80014704700F00A
:10AB20000F0000F1E02080F8141D704702E008C813
:10AB3000121F08C1002AFAD170477047002001E0B7
:10AB400001C1121F002AFBD1704770B504460025D1
:10AB50006FF02F0608E02068411C2160007805EBAB
:10AB6000850106EB410145182068007800F004F8E3
:10AB70000028F0D1284670BD3038092801D80120BE
:10AB8000704700207047000010B54421074800F0CE
:10AB90008BFD00221E2106481DF002FE054CA06020
:10ABA00002F010F80020207010BD0000B42B00202F
:10ABB00079CC0008FC0100202DE9F0470E468146C3
:10ABC00017461146304600F011F900287ED00022C9
:10ABD0003946304600F0B6F800284FF0000076D134
:10ABE000B6F904C0B6F90030F288ACEB03010FFAF5
:10ABF00081FAB6F90210B7F80280521AA8EB0108E0
:10AC00000FFA88F812B2B8F1000F0EDD63F30F04EB
:10AC10006CF30F0501EB080061F31F4460F31F455F
:10AC2000C9F800400120C9F80450B7F9061073882C
:10AC3000CB1AD21A12B2002A13DDB6F906309942A5
:10AC40000FDA338863F30F04B38861F31F4463F3AF
:10AC50000F05114461F31F4509EBC001401C0C6056
:10AC60004D60B7F90220B6F902108A4200DD1146A4
:10AC7000B7F90630B6F90620934200DA1A463B8847
:10AC8000B6F900C0521AA3EB0C031BB212B2002B90
:10AC900010DD002A0EDD634463F30F058B1863F3A8
:10ACA0001F456CF30F0409EBC00361F31F441C60E4
:10ACB0005D60401CB7F904703388FE1AAAEB0603E6
:10ACC0001BB2002B11DD67F30F0401E00FE00CE075
:10ACD00061F31F443B4463F30F05114461F31F45C7
:10ACE00009EBC001401C0C604D60BDE8F0874FF0DF
:10ACF000FF30FAE770B5B1F90030B2F90040A34275
:10AD000000DC23460380B1F90250B2F90240A542AB
:10AD100000DD2C464480B1F90460B2F90450AE4223
:10AD200000DA35468580B1F90610B2F90620914265
:10AD300000DB1146C1800120AB4201DC8C4200DD0A
:10AD4000002070BDF8B50D460446B0F90000B1F919
:10AD500000101646884247DBB4F90210B5F902200C
:10AD6000914241DBB4F90410B5F9042091423BDC77
:10AD7000B4F90610B5F90620914235DC96B3ADF86A
:10AD800000006088ADF8020032466946284600F0AF
:10AD900099F8002827D0A088ADF800006088ADF8A9
:10ADA000020032466946284600F08CF800281AD086
:10ADB0002088ADF80000E088ADF802003246694610
:10ADC000284600F07FF800280DD0A088ADF80000DC
:10ADD000E088ADF8020032466946284600F072F875
:10ADE000002800D00120F8BD0020F8BDB0F90020F7
:10ADF000B1F904309A4213DCB0F90420B1F9003003
:10AE00009A420DDBB0F90220B1F906309A4207DC14
:10AE1000B0F90600B1F90210884201DB0120704749
:10AE200000207047F8B50D460446B0F90400B1F9AA
:10AE300000101646884243DBB4F90600B5F902104B
:10AE400088423DDBB4F90000B5F90410884237DCD4
:10AE5000B4F90210B5F90620914231DC76B3ADF8B1
:10AE600000006088ADF8020032466946284600F0CE
:10AE700029F818BBA088ADF800006088ADF8020082
:10AE800032466946284600F01DF8B8B92088ADF86A
:10AE90000000E088ADF8020032466946284600F01E
:10AEA00011F858B9A088ADF80000E088ADF80200AC
:10AEB00032466946284600F005F808B10020F8BD82
:10AEC0000120F8BD2DE9FC4114460E46B1F90020E1
:10AED000B0F9001005468A423ADBB5F90400824217
:10AEE00036DCB6F90270B5F90220974230DBB5F9CD
:10AEF00006309F422CDC002C75DD401A9A1A401C4B
:10AF0000521C00B212B200EBD07002EBD2724010B1
:10AF10005210904200DB1046844200DD0446ADF83A
:10AF20000010288800222044ADF804006888ADF89D
:10AF30000200688831462044ADF806006846FFF7F5
:10AF4000C1FF40B1BDF804002044ADF804003FE06B
:10AF50000020BDE8FC81E8880022001BADF802005B
:10AF6000E888ADF8060031466846FFF7ABFF28B128
:10AF7000BDF804002044ADF8040011E0A8880022C8
:10AF8000001BADF80000A888ADF804003146684603
:10AF9000FFF798FF50B1BDF80000001BADF80000AE
:10AFA000BDF80200001BADF8020016E06888ADF89D
:10AFB0000200688800222044ADF806003146684649
:10AFC000FFF780FF70B1BDF80000001BADF8000076
:10AFD000BDF806002044ADF80600314668461AF078
:10AFE00085FFB6E7FFE70120B3E710B5B1F90040F0
:10AFF000B2F900309C4200DA23460380B1F90240E6
:10B00000B2F902309C4200DA23464380B1F9044091
:10B01000B2F904309C4200DD23468380B1F906106A
:10B02000B2F90620914200DC1146C18010BD00003B
:10B030002DE9F0418AB007461DF04EFB0026A34CD7
:10B04000054600960FB1F86801E010F071F86060F5
:10B0500000691AF047FE6068406908B11AF042FEC4
:10B060006068C0691AF03EFE6068006A1AF03AFE35
:10B070006068016991B11AF0D1FF1FF063FC1FF005
:10B080008DF96068B0F85011E9B30068017CC90718
:10B090001FD0C0684068E0B1002715E0A0F85061FB
:10B0A0000AB0BDE8F081C11991F8301151B900F52D
:10B0B000AC7000F050FB616801EBC7010A6B0260E5
:10B0C000496B41607F1CBFB26068B0F85011B94253
:10B0D000E9D860684FF48071303016F0D7FA6068B4
:10B0E000202100F5987016F0D1FA6068A0F8506140
:10B0F00028461DF0EBFA009060680068436A13B1BF
:10B1000022680099984716F005F900F02BF900F035
:10B11000FDF86F4D6F69D7BB15F0AFFE14F0A8FFB7
:10B12000074600227F211AF0D6FC0FF083F9014672
:10B13000002238461AF0BEFC0FF046FC0146002201
:10B1400038461AF033FD0022032138461AF024FD58
:10B150000022032138461AF010FD00220321384650
:10B160001AF010FD0022032138461AF010FD0022CB
:10B17000032138461AF015FD56A1384615F0FEFD9C
:10B1800000231A460621384616F06CFE6F612868C7
:10B190001DF09CFA4FF4967840450CD2206841F29D
:10B1A0008831884234D96968009808446860A86882
:10B1B000401CA8602CE01DF08FFA28606068406891
:10B1C00028B100684FF47A71B1FBF0F000E0212063
:10B1D000696809B901216960A968F1B14FF47A720F
:10B1E00051436A68B1FBF2F46E60AE60844200D9EC
:10B1F0000446286920442861E868401CE8601DF086
:10B2000001FBC0F16403224633A1384615F0EDFD81
:10B210002E4D08356C6814B137E00446E4E715F0AC
:10B220002CFE14F025FF044600227F211AF053FC67
:10B230000FF000F90146002220461AF03BFC0FF007
:10B24000C3FB0146002220461AF0B0FC0022032175
:10B2500020461AF0A1FC0022032120461AF08DFCA2
:10B260000022032120461AF08DFC002203212046F3
:10B270001AF08DFC17A1204615F080FD00231A4618
:10B280000421204616F0EEFD6C6028681DF01EFAC1
:10B2900040457FF605AF1DF01FFA286002A816F0A2
:10B2A000D1F804990298401A820A514200EB812099
:10B2B0006621B0FBF1F39DF821109DF82000CDE947
:10B2C000000109A1204615F090FDE9E6A400002048
:10B2D000202A00203F0000002575204650530A25F3
:10B2E000752525204350550025752E2575206B4268
:10B2F000207573656420282564202525290A256486
:10B30000252520667261672E0000000070B50A4D89
:10B31000002400BFC4EBC40655F8260008B116F09F
:10B320006DF805EB86001C2116F0B0F9641CE4B240
:10B33000042CEFD370BD0000902C00200849496810
:10B340000AE04A68824202D00A68824203D10A7E39
:10B3500042F001020A7649690029F2D170470000E3
:10B3600078000020704700000421014800F09CB9DB
:10B37000A82B00202021014800F096B9C02B002006
:10B380002DE9FF410446DDE90A671D004FF000008A
:10B3900002D1B6F5807F2BD0039001900290ADF8DA
:10B3A0000C100090ADF80410ADF80A20ADF80E2096
:10B3B0003B463246294668461AF0F8FC3B46324680
:10B3C000294601A81AF0F2FC3B463246294602A85B
:10B3D0001AF0ECFC3B463246294603A81AF0E6FC7C
:10B3E000BDF90000BDF90430984209DA054608E0CD
:10B3F0002080491E6080A180521EE280BDE8FF814E
:10B400001D46BDF90820BDF90C108A4201DA164626
:10B4100000E00E46B54203DA984206DB184604E027
:10B420008A4201DA104600E00846801E2080BDF9FD
:10B430000030BDF90420934201DD1D4600E01546B1
:10B44000BDF90800BDF90C10884201DD064600E098
:10B450000E46B54205DD934201DD194604E0114672
:10B4600002E0884200DD0146891CA180BDF902305E
:10B47000BDF90620934201DA1D4600E01546BDF9EC
:10B480000A00BDF90E10884201DA064600E00E46B9
:10B49000B54205DA934201DA194604E0114602E0AA
:10B4A000884200DA0146891E6180BDF90230BDF98B
:10B4B0000620934201DD1D4600E01546BDF90A0055
:10B4C000BDF90E10884201DD064600E00E46B54289
:10B4D00005DD934201DD194604E0114602E0884291
:10B4E00000DD0146891CE18088E700002DE9F0417C
:10B4F00015460E460746114C1DF0EEF880462B46C9
:10B5000032463946204613F0C3FF20B10020A06226
:10B51000E06950B110E02C21204616F0B7F84FF04A
:10B520000040A0620020BDE8F08140461DF0CEF84A
:10B53000E06108B90120E0612046F4E7E42B002037
:10B5400010B51421074800F0AFF813F067FF40B1C1
:10B550000549016005494160054981600549C160AF
:10B5600010BDFEE7CC2B0020F5ED010871F10108BC
:10B570003DF30108C1ED01087FB50E46040003D17B
:10B580000FF0D6FD04002CD00FF046FE002828D086
:10B5900094F82800400724D4002506B3ADF80050E5
:10B5A000ADF8025020460FF0DBFD401EADF8040060
:10B5B00020460FF01BFE401EADF806006A463146DD
:10B5C00002A8FFF797FB00280BD02068017C8907B1
:10B5D00008D5DDE90001C4E90C01012029E0A4F847
:10B5E00050517FBD82690AB102A9904700260AE046
:10B5F00004EBC601002202A83031FFF7A3FB0028AC
:10B60000EFD1761CB6B2B4F85001B042F0D880B297
:10B61000202804D204EBC00002A9303004E0A4F8D2
:10B62000505104F1300069460DF08BFAB4F8500126
:10B63000401CA4F8500160680028D2D01DF090F999
:10B640007FBD70B5054600F012F804460CE02146B7
:10B65000284600F01EF806462146284600F0A2F8CB
:10B66000204615F0CBFE3446002CF0D170BD0028EA
:10B6700000D04068704700B503460022FFF7F7FF8F
:10B6800003E01846521C00F004F80100F9D11046FE
:10B6900000BD0068091D4058704700684058704759
:10B6A000002800D08068704700224260C91C21F049
:10B6B000030182600160704770B50446006808307D
:10B6C00015F010FE050013D00146002220461EF0A2
:10B6D00063FA2946204662681EF058FA616819B17B
:10B6E0002A4620461EF058FA6560A06800B9A56099
:10B6F000284670BD2DE9F0410C4606000AD04CB139
:10B70000FFF7B5FFA04208D13046FFF7D5FF051E71
:10B7100001D01EE00020BDE8F0813068083015F04F
:10B72000E1FD051EF7D030682A46075930463946F4
:10B730001EF02CFA3A46294630461EF02DFA2A46CB
:10B74000214630461EF028FA2246294630461EF091
:10B750001DFA2846DFE770B504460068083015F08A
:10B76000C1FD050013D00146002220461EF00EFA4E
:10B7700029462046A2681EF00FFAA16819B12A4690
:10B7800020461EF003FAA560606800B9656028468F
:10B7900070BD28B1416809B9806808B100207047C0
:10B7A0000120704770B504000DD0FFF760FF002244
:10B7B0008842204608D1FFF76CFF6060011E01D06F
:10B7C00000221EE0A26070BDFFF76AFF8842206879
:10B7D00008440AD10168A16029B12046BDE8704043
:10B7E00000221EF0D3B9626070BD05682046FFF7E5
:10B7F00050FF06460246294620461EF0C7F92A4653
:10B8000031462046BDE870401EF0C6B910B504466A
:10B81000006882680AB121469047206800680028C5
:10B8200001D02060F5E710BD8068002801D0B0F994
:10B83000160070478068002801D0807E800970471C
:10B8400070B5164605460C4651EA06001AD0284641
:10B8500016F082FCA86801233246018A2144018245
:10B86000A868418A314441822146284618F0EEFFFB
:10B8700000220B21284612F067FD012803D128463B
:10B8800018F03EFF012070BD77B581B00E4605006F
:10B8900017D0622218F06EFA040012D0206880B12E
:10B8A00028463146632218F065FA10F0FF0208D0EE
:10B8B00023682046039998470090BDF80000ADF832
:10B8C0000C00039804B070BD2DE9F047074692B014
:10B8D000408C1A9E40F00800788490463A8499463D
:10B8E0008A463289384618F045FA0546A7F820906E
:10B8F00032895146384618F03DFA0446788CA54204
:10B9000020F00800788403D12904B1EB044F68D0FB
:10B91000A7F8208032895146384618F02BFA0546A0
:10B920008046A7F82090514638460BF0D1F931896E
:10B9300000682A461BF01CFE30890B2823D147F6ED
:10B94000FF794D4501D04C451DD1384618F0D9FB43
:10B9500000EBD0704510384617F0B3FA00EBD0700A
:10B960004010C84506D1691C431C994200DA00E02A
:10B97000194688464C4506D1691C421C914201DAA1
:10B980006C1C00E014461948FFF796FE05002BD00A
:10B990002F60C5E903843089A8806846C5F808A0EF
:10B9A0000CF044FB1248FF21CDE9005011480290F1
:10B9B0001148039000200890CDE9090130880B90D0
:10B9C00070889DF8421040420C90F068079000206B
:10B9D00060F300018DF842103069069068460CF063
:10B9E00099FB12B0BDE8F087FEE70000D82B0020DD
:10B9F000A1D902089DDB0208F9DA020814210148E6
:10BA0000FFF752BED82B00202DE9F84F00259046B5
:10BA1000894606462C460427E6E000BFF06807EB9F
:10BA2000C401405881017CD480B230EA090112D0AF
:10BA30005FF0000230EA08000FD00020824270D090
:10BA4000F0686A46102150F8340082461BF0F2FA82
:10BA5000002871D103E00122ECE70120EEE76A46FD
:10BA6000112150461BF0E6FA002865D16A461221E2
:10BA700050461BF0DFFA00285ED16A46132150467B
:10BA80001BF0D8FA002857D16A46152150461BF002
:10BA9000D1FA002850D16A46142150461BF0CAFA48
:10BAA000F0BB6A460A2150461BF0C4FAC0BB6A4686
:10BAB0006B2150461BF0BEFA90BB6A466C21504683
:10BAC0001BF0B8FA60BB6A46012150461BF0B2FA7F
:10BAD00030BB6A46042150461BF0ACFA00BB6A46F4
:10BAE000022150461BF0A6FAD0B96A4603215046FF
:10BAF0001BF0A0FAA0B96A46052150461BF09AFA3D
:10BB000070B96A46062150461BF094FA40B96A465D
:10BB1000322150461BF08EFA10B96A466E2101E0C0
:10BB20000AE060E050461BF085FA28B96A466D21AC
:10BB300050461BF07FFA10B10320BDE8F88F6A462B
:10BB4000692150461BF076FAF0BB6A466A215046DE
:10BB50001BF070FAC0BB6A466E2150461BF06AFAB1
:10BB600090BB6A466D2150461BF064FA60BB6A4682
:10BB7000372150461BF05EFA30BB6A4638215046EA
:10BB80001BF058FA00BB6A46352150461BF052FAAA
:10BB9000D0B96A46402150461BF04CFAA0B96A461B
:10BBA000452150461BF046FA70B96A46412150467D
:10BBB0001BF040FA40B96A46422150461BF03AFA5F
:10BBC00010B96A46432100E009E050461BF032FA02
:10BBD00028B96A46492150461BF02CFA08B10225C3
:10BBE00001E005B90125641C708CC0F30510A0426A
:10BBF0003FF614AF2846A0E70148406870470000B0
:10BC0000A40000200549002048600861C8608860E1
:10BC1000086048610249086048607047202A002097
:10BC2000AC000020C0F30410072800D9072070479B
:10BC3000A0F57F41FF3905D0002804D0712803D238
:10BC400008490AE01F2070470749713880B2096827
:10BC500029B1064A5268904201D2085C7047002020
:10BC600070470000B4A80408280200203C0200200D
:10BC700010B518210348FFF717FD0349012008708C
:10BC800010BD0000842B0020440200202DE9F0416B
:10BC900090460C46050015D0FCF7DBFA0A4F064625
:10BCA0002146BA68284690470446BA682819414692
:10BCB00090470146701A03E06218AA5C2A55641C7A
:10BCC000A042F9D2BDE8F081580200202DE9F041F0
:10BCD000094D90460E466A681C460746194690472D
:10BCE000306020B120686A68384400219047C8F865
:10BCF0000000BDE8F0810000580200202DE9F04F5F
:10BD000087B08A46DDE910581F4693460446002155
:10BD100005B129805CB12078002809D0BAF1000F64
:10BD200005D0002618F0060F15D0002004E00020F2
:10BD300007B0BDE8F08F401C215C0A2904D00D2912
:10BD400002D00029F7D100E0401C002DF0D04FF0C8
:10BD5000FF312980ECE75FEA887001D541F6FF7773
:10BD6000894608468DF81410049127E00498CDF810
:10BD7000189068B34FF0000C05AA06ABCDF80CC0C4
:10BD8000CDF80080CDE9013220443B465A46514669
:10BD90001CF04AFF06997A1A314417B20EB288B1E4
:10BDA00004990144049120780A280BD00D2809D069
:10BDB000605C0A280FD00D280DD00846205C08B121
:10BDC000002FD3DC049848B105B12E800498AFE76A
:10BDD0004FF0010CD0E7481C0490F3E7064A04A991
:10BDE000204652689047002DF0D001460022504670
:10BDF00012F0BEFB06B2E8E7580200202DE9F04140
:10BE00001746884606001ED0002F1CD0FCF721FAEA
:10BE100004463846FCF71DFA050014D00B4A2C44A2
:10BE20004146926830469047411903E0621BB25C7C
:10BE30003255641EA142F9D930442A463946BDE83C
:10BE4000F04115F0E5BBBDE8F0810000580200208C
:10BE500000230278232902D0012A0DD00FE02AB155
:10BE60000021012A04D0022A04D008E0012101E0C7
:10BE7000017004E0017001E0202902D0012318467E
:10BE800070470221F6E72DE9F0410E468046024652
:10BE90000021334608461DF005F904460027401CE2
:10BEA00015F020FA050008D02F5533464246611C94
:10BEB0001DF0F8F82846BDE8F081FEE72DE9F047CF
:10BEC0001E4614460D468246DDF8209015E000BF60
:10BED0004FEA540808FB0657394650464A469047F1
:10BEE000002808DD44F30000C0EB540407EB06050E
:10BEF000A4F1010401E005DA4446002CE8D1204613
:10BF0000BDE8F0873846FBE72DE9FC5F9B460CABAC
:10BF10008A468146DDE9116093E81210DDE90F578A
:10BF20005FEA80784FF030031AD45EB15FEAC078E0
:10BF300008D000F00C0858EA0C0803D0761E01E087
:10BF40000B55641CBC4204D2202CF9D301E00B55E4
:10BF5000641C5FEAC07803D0B44201D2202CF6D32F
:10BF60005FEAC06825D55FEA40580AD44CB1BC42AC
:10BF700001D0B44205D1641E03D0102D03D1641E3C
:10BF800004E0102D02D0022D0AD00EE0850603D465
:10BF9000202C1ED2782506E0202C1AD2582502E04B
:10BFA000202C16D262250D55641C202C11D20B5565
:10BFB000641C202C0DD2BCF1000F01D02D2306E013
:10BFC000430701D52B2302E0030702D520230B559D
:10BFD000641CCDE900BAC846154681468B46AA4680
:10BFE000800714D1274607E02A46DDE900316D1CA1
:10BFF0002020C446E0477F1CB742F5D307E02A461D
:10C000006D1C641EDDE900311BF80400C047002CE4
:10C01000F5D15FEA897006D409E02A46DDE90031EE
:10C020006D1C2020C047A5EB0A00B042F5D328467E
:10C03000BDE8FC9F2DE9F04F8FB099468B46DDE9B6
:10C040001818DDE91C63DDE91A479246864600228E
:10C0500009B923F01003580507AD00D5C9B1B1FBEC
:10C06000F4F004FB1010C0B20A2801D2303009E00D
:10C070005FEA836C02D54FF0410C01E04FF0610C98
:10C0800060440A38B1FBF4F1A854521C09B1202ACB
:10C09000E5D3CDF80880CDE90563CDE90052CDE9BF
:10C0A00003474B46524659467046FFF72DFF0FB0E7
:10C0B000BDE8F08F2DE9FF4F8FB01CACDDE9239573
:10C0C00094E8030820AC94E8C004002450EA01027C
:10C0D00001D125F010056A050DF11C0802D550EAC2
:10C0E000010217D032463B46FCF740F8D2B20A2A8A
:10C0F00001D2303206E0AB0601D5412300E06123D6
:10C100001A440A3A08F80420641C50EA010201D0DB
:10C11000202CE7D3CDE90084CDF808B0CDE9059512
:10C12000CDE9036A0FAF97E80F00FFF7EDFE13B0FC
:10C13000BDE8F08F9A4200D28854704770470000E3
:10C140002DE9FF4F8BB088460546002606E02528DE
:10C150000BD0DDE90D1290476D1C761C2878002865
:10C16000F5D10FB03046BDE8F08F0024A146A246BD
:10C170000122AE4900E0044315F8013F203B02FADA
:10C1800003F00842F7D128782A2810D06FF02F0248
:10C190002878A0F13001092915D809EB890102EBB3
:10C1A000410144F0020400EB01096D1CF0E758F86E
:10C1B000041B5FEA010903D544F40054C9F10009E6
:10C1C00044F002046D1C28782E2817D115F8010FB1
:10C1D00044F004042A280ED06FF02F022878A0F132
:10C1E000300109290AD80AEB8A0102EB410100EB70
:10C1F000010A6D1CF2E758F804AB6D1C28786C2816
:10C200000FD006DC4C2817D068280DD06A2814D12E
:10C2100004E0742810D07A280FD10DE044F4001403
:10C220000AE044F4801401E044F440146978814247
:10C2300002D104F580146D1C6D1C2878692865D026
:10C2400006DC00288DD0632827D0642806D15DE065
:10C250006E2808D073282AD0752877D0DDE90D1212
:10C260009047761CE0E0C4F30250022809D003286E
:10C270000DD0D8F8001004280DD00E6008F1040885
:10C28000D2E0D8F80010F217C1E90062F6E7D8F85A
:10C2900000100E80F2E70E70F0E718F8041B8DF81E
:10C2A000001000208DF80100EB46012003E058F853
:10C2B00004BB4FF0FF3061074FF0000701D40AE0E4
:10C2C0007F1C57450DDA8742FADB1BF8071000295F
:10C2D000F6D106E07F1C8742FCDB1BF80710002923
:10C2E000F8D1DDE90D23A9EB07008146214600F0D6
:10C2F000B1F83044C61904E0DDE90D121BF8010B5A
:10C3000090477F1EF8D22146484688E058F8040B33
:10C31000C4F302514FF00A0B032900D100B20429E3
:10C3200000D140B2002802DA40422D2102E021056E
:10C3300005D52B218DF82410012104E006E0E1074A
:10C3400010D02021F6E708AF089113E058F8040B4D
:10C35000C4F302514FF00A0B032900D180B2042923
:10C3600000D1C0B20021EEE75946FBF790FF303113
:10C3700007F8011D0028F7D1ADEB070000F1200BF5
:10C38000600702D524F4803401E04FF0010ADA4559
:10C3900002DDAAEB0B0000E00020824600EB0B015F
:10C3A00008980144A9EB01000A90E00306D4DDE9F6
:10C3B0000D2321460A9800F04DF806444FF000097D
:10C3C00008E009A911F80900DDE90D12904709F10B
:10C3D0000109761C08998945F3DBE0030CD5DDE9FA
:10C3E0000D2321460A9800F035F8064404E0DDE903
:10C3F0000D1230209047761CBAF10001AAF1010A13
:10C40000F5DC05E0DDE90D1217F8010B9047761C0D
:10C41000BBF10001ABF1010BF4DC0A982146DDE928
:10C420000D2300F005F806446D1C97E6092801006D
:10C430002DE9F041044600251E461746880404D421
:10C4400005E039462020B0476D1C641EF9D528460A
:10C45000BDE8F0812DE9F041044600251E469046D6
:10C46000C80301D5302700E02027880404D505E063
:10C4700041463846B0476D1C641EF9D52846BDE8D4
:10C48000F0810A68531C0B60107070472DE9FF4F54
:10C4900089B005460A9800249246002800D1FE4D36
:10C4A0008FE1252804D02246641C53460A990BE2EA
:10C4B000491C4FF0000808460C9101782B2919D02F
:10C4C00004DC202919D0232904D119E02D290ED00C
:10C4D000302909D00026C8B2FEF74EFBB0B10CA837
:10C4E000FEF733FB06461FE048F001010AE048F082
:10C4F000020107E048F0040104E048F0080101E00F
:10C5000048F01001401C88460C90D6E70C9908783A
:10C510002A2809D1169840C81690002E02DA48F051
:10C5200002087642491C0C910C984FF0000B0178E0
:10C530002E2919D1401C0C9048F480680078FEF731
:10C540001BFB20B10CA8FEF700FB83460CE00C9A05
:10C5500010782A2808D1169901C91691002800DC04
:10C560000020521C83460C920C9801786C290AD04A
:10C5700004DC68290FD06A2919D128E0742929D050
:10C580007A2914D126E0401C0C90017848F4807878
:10C590006C291CD00BE0401C0C90017848F08008FE
:10C5A000682904D148F04001401C88460C9001469F
:10C5B0000078692822D015DC62281FD00DDC2528E0
:10C5C00072D050281AD058287FF46DAF16E048F486
:10C5D0000071E9E748F48071E6E7632879D06428C0
:10C5E000F2D10BE0732875D004DC6F2806D07028D8
:10C5F000EAD103E0752801D07828E5D178280DD05C
:10C6000058280BD070280BD0502809D06F2816D08E
:10C61000622816D00A2228F0100016E0102207E047
:10C620004878102248F48878562804D1491C0C9187
:10C630000878582807D00878502804D006E0082247
:10C6400009E0022207E048F02000804608786928C7
:10C6500003D0642801D028F00C085FEA485001D5C7
:10C6600028F00108087869281FD064281DD05628B2
:10C6700064D05FEA885072D51698CDF818B0C01D06
:10C680000021CDE904210291CDE9076820F00700DF
:10C690005346F0E80212CDE90012169022462846D1
:10C6A0000A99FFF707FD88E009E15FEA885022D583
:10C6B000169804AFC01D20F00703F3E8020116939B
:10C6C000002387E80C08CDE90768002903DA012276
:10C6D00002E07FE0A6E00022002302921A461B1A25
:10C6E0008A4103DB0022404262EB010153462246AD
:10C6F000CDE90001D3E75FEAC85004D5169901C916
:10C700000FE0404215E05FEA486003D5169911F842
:10C71000040B06E05FEA0860F0D5169931F8040BC7
:10C7200000B21691CDE9022BCDE90468C10F0028B3
:10C73000E7DD53462246CDE900013AE01699AAEB1F
:10C74000040201C9169141680968009103680A98BA
:10C7500001192846FFF79AFE04442FE0FFE75FEA3D
:10C76000C8500CD5CDE9022BCDE9046816980021FC
:10C77000534604C8CDE900211690224619E05FEA2D
:10C78000486003D5169810F8041B08E05FEA0860BB
:10C79000169803D530F8041B89B200E002C8169041
:10C7A00001AF0020009187E80508CDE904685346F1
:10C7B000224628460A99FFF73DFC04460C98401C87
:10C7C0000C900C99087800287FF46BAE54457DD20C
:10C7D00022467DE001275FEA887006D509E02246FF
:10C7E000641C534620200A99A84738467F1CB04253
:10C7F000F5D316982246641C10F804CB16905346C5
:10C8000060460A99A8475FEA887006D4D6E72246B0
:10C81000641C534620200A99A84738467F1CB04222
:10C82000F5D3CBE7169850F8049B16904B46BBF116
:10C83000000001D0014601E04FF0FF31484600E022
:10C84000401C02780AB1491EFAD2C71A5FEA485062
:10C8500003D558465F4500D307465FEA887006D582
:10C8600011E02246641C534620200A99A847384606
:10C870007F1CB042F5D306E0224609F10109641C91
:10C8800053460A99A84799F8000040B15FEA485119
:10C89000F2D5BBF1010B01E03DC10008ECD25FEA2B
:10C8A000887006D48AE72246641C534620200A99E1
:10C8B000A84738467F1CB042F5D37FE706E0224602
:10C8C000641C534625200A99A84777E7AAF101027C
:10C8D000534600200A99A8470DB02046BDE8F08FC6
:10C8E00010B502004FF000000CD04B1E194200D0D2
:10C8F000FEE70A44521E9A43B2F5803F02D20C2A48
:10C9000001D9104610BD0C2010BD08444A1E401E1F
:10C910009043114200D0FEE7704700002DE9F0413E
:10C920000F4601210025044641862E460BE01B4997
:10C93000FBF796FC10B16D1CADB202E0608E401C9E
:10C940006086761CB6B257F8260010B1017800292F
:10C95000EDD1208EA8421ED0A06A002610B114F09E
:10C960004DFDA662E06A10B114F048FDE662E800F1
:10C9700014F0B8FCA06238B1680014F0B3FCE062B7
:10C9800018B1A16A11B102E0FEE7FEE700256900D7
:10C9900014F07CFE2586BDE8F0810000509501086A
:10C9A0002DE9F84F8146407A0F4600F00700022833
:10C9B00019D010468046974200DD3A4616460320BD
:10C9C0002A4C2B4A00EB460020F00305A0681168B2
:10C9D0001035411A636805EB010C9C4505D241688E
:10C9E00021F0004124E00846E4E79D4219D8924630
:10C9F0004FF0FF3B48196168884210D90022694610
:10CA00001C48CDF800B00AF071FF002269461A48B0
:10CA10000AF06CFFA168DAF80000091AEAE7A068DA
:10CA2000DDE7284614F05EFCC0B1416841F00041EA
:10CA300088EA6702416089EA02010160416801F009
:10CA40004041491C31F0804141608681A0F80E8050
:10CA500005D500F110018160BDE8F88FFEE7A168FF
:10CA600001F1100229448260A160F5E7B4000020C2
:10CA700024020020015901084D79010870B586B0E3
:10CA800000224F4C8DF808208DF80C208DF81020D6
:10CA9000E2888A4201D0FF22A270E18090F83C2017
:10CAA000142302F003024FF4B475012A24D0022AA1
:10CAB00068D0A578AA4211D010F8265F05EB0515BD
:10CAC00005EB4505B5FBF3F52570407800EB00104C
:10CAD00000EB4000B0FBF3F06070A27004AA03A862
:10CAE000CDE9000201EB41004FF6FF7101EA400081
:10CAF00002AB627821781BE0A678B24210D0868C17
:10CB000006EB46067602B6FBF5F5A58090F8270001
:10CB100000EB001000EB4000B0FBF3F06070A2707F
:10CB200004AA03A8CDE90002C9B202AB627844E0CE
:10CB300008F0ECFB9DF80C00BDF8003044099DF8AE
:10CB4000082064F30203ADF80030D308BDF80020DC
:10CB50009DF8101063F3C702ADF80020CA08BDF8B5
:10CB6000001062F30C21ADF800108108BDF8000040
:10CB700061F34F30ADF8000080B20090BDF80000C6
:10CB800006B070BDA678B24210D0868C06EB460681
:10CB90007602B6FBF5F5A58090F8260000EB0010B4
:10CBA00000EB4000B0FBF3F02070A27004AA03A8D1
:10CBB000CDE90002CAB2217802ABA088B8E7000034
:10CBC0006001002010B5084C012020700748FEF7D6
:10CBD0004EFD0028A06803D0BDE810401BF0C0BE89
:10CBE000BDE810401BF0B0BEFC010020B42B0020BB
:10CBF00010B5044690F84200A16B820709D4B4F83E
:10CC000040204AB1A2F57F43FF3B1BD0521EA4F83F
:10CC10004020B4F84020AAB909B1820712D52146B4
:10CC20001448FEF7BFFDFFF7CDFFE16809B12046CC
:10CC30008847216909B1204688472046BDE8104051
:10CC400014F0DCBBE26B52422263002911D0820750
:10CC500002D4626B524222634210521C62F34100C2
:10CC600084F84200A26A206A2262A062E06AE1625D
:10CC7000A06310BDB42B002070B5304D68681BF068
:10CC800025FD0646687880F00100687047E00020C6
:10CC9000287094F842006978C0F380028A4242D03A
:10CCA00061F3820084F84200216B8A19030719D4CA
:10CCB000002917DC002A15DBC00709D1616939B1E9
:10CCC00020468847216A01442162A16A0844A06283
:10CCD000A16809B12046884794F8420040F0080056
:10CCE00084F84200206B8019206316D4E16A8842E0
:10CCF00000DD2163E169204688470146606A884279
:10CD000004D0616262680AB120689047D4E90B01DF
:10CD1000814202DB2046FFF76BFF287818B10848F4
:10CD2000FEF7A5FC03E021460548FEF7B2FC04002F
:10CD3000ADD11BF0D1FC686070BD0000FC0100208B
:10CD4000B42B002070B5044640680D4608B1FFF7CB
:10CD5000F9FF2268002A04D029462046BDE8704029
:10CD6000104770BD89B20BF051BE89B20BF08ABE7C
:10CD70002DE9FF4F99B09846DDE926B12D9816466A
:10CD80008A464FF00009042811D0052811D0062842
:10CD900012D0142873D10127022508FB06F00E904B
:10CDA0001A980024401E0D90701E06904AE100273C
:10CDB000F2E701270325F0E701270225FEF71CFF14
:10CDC0000068D0F83890E8E7289860430BEB202201
:10CDD000299860430AEB202110124FEA212E7DD4BE
:10CDE0001A9B98427ADABEF1000F77DBB645F9DA82
:10CDF000D3B201F0FF0C802B05DAC3F17F014FF0B5
:10CE0000FF32490003E001225900A1F58071099128
:10CE1000BCF1800F05DACCF17F034FF0FF315B00EE
:10CE200004E04FEA4C030121A3F580730A930EFB43
:10CE3000080C199B0CFB05330793831811937BD4C3
:10CE4000DDF834C0634577DC1EEB01030F9373D428
:10CE5000DDF818C063456FDC079B01FB08F102FB9E
:10CE6000053201FB053116929C460C91BFB32D99FA
:10CE7000052905D014290AD006294CD059E0E5E04F
:10CE80000C989CF8022081781698807810E0199A06
:10CE90000E9902EB41010B180EFB08111198179324
:10CEA0000EFB08F2085C0F99D25C01FB08F1C95C2B
:10CEB000914207D00A9B5943C3F5807302FB0311CB
:10CEC000C1F30721904207D0099B5843C3F58073F3
:10CED00002FB0300C0F30720084401E09AE02CE0C5
:10CEE0002C99400808555FD09CF800109CF8010070
:10CEF00001EB0020ADF80C000C980178407801EBB4
:10CF00000020ADF8100016980178407801EB002061
:10CF1000ADF808001FE0BCF800101FFA89F081424C
:10CF200078D00C990988814274D016990988814279
:10CF300070D0FF210846CFE737E0BCF80000ADF81D
:10CF40000C0016980088ADF808000888ADF81000AD
:10CF50002C98FF210155BDF80C00BDF81010884237
:10CF600009D1BDF80810884205D12B98BDF80C10E6
:10CF700000EB440017E00A98C2B2DDE903100DF09F
:10CF800065FC04900998C2B2DDE902010DF05EFC77
:10CF90007F22029004990DF059FC00902B98BDF867
:10CFA000001000EB440001804AE0079B93F800C0AA
:10CFB0005B780CEB0323DDF8ACC09BB22CF814308B
:10CFC000DDF8B4C0BCF1050F06D0BCF1060F06D0E9
:10CFD000BCF1140F09D10AE0079B9B780FE01FFA00
:10CFE00089FC634501D1002309E0FF2307E0199B79
:10CFF0000EFB083C0E9B00EB43031CF8033008B902
:10D00000002A05DBDDF834C0604504D1002A02DDCA
:10D0100009980BE011E0BEF1000F01D1002904DBFB
:10D02000069A964509D1002907DD0A98C0F1FF004C
:10D030005843010A2C98015502E02C99002008550C
:10D04000641C24B22A988442FFF6BEAE1DB0BDE82F
:10D05000F08F000010B5818F92B00446A9B16846E8
:10D060000AF0E4FF0B480121CDE90040A08F0B90AE
:10D0700000200890CDE90901074807900748039070
:10D0800068460BF047F812B010BD12B0BDE8104072
:10D090001CF0D2BEB19E0208EB800108B39E0208CC
:10D0A00010B50446406882080AD0496821F003019F
:10D0B000091D08446060204600F042F8204610BD7B
:10D0C000FEE74068103120F00300884201D30120C0
:10D0D0007047002070472DE9FC47054648680C461C
:10D0E00020F0030001AA69461CF0FAFBDDE900709C
:10D0F00005EBC71101EB80098046D9F83C0060B10F
:10D1000064B1C4E9020504F10806C4603046042194
:10D11000FFF7FBFB864202D0FEE7FEE7FEE7C9F819
:10D120003C400120296900FA07F21143296105EB0F
:10D13000870100FA08F04A6902434A61BDE8FC87AA
:10D1400010B5044600F087F8046010BD2DE9FC47D7
:10D1500006464FF000000D0000900746019042D0B7
:10D160000C46E9460DF10408802907D3084620F053
:10D170000FFC411F01208840401E0444424649469E
:10D1800020461CF0ADFB009C0A2C2CDA06EB840038
:10D19000019A40694FF0FF3101FA02F210400CD1C0
:10D1A000641C3069A14008401DD020F0E9FB044612
:10D1B000009006EB8000406978B120F0E1FB034667
:10D1C00006EBC411019001EB8000C76B5FB178687A
:10D1D00020F00300A84201D2FEE7FEE739463046C0
:10D1E000009A1DF0FDFC3846BDE8FC8710B50446EA
:10D1F000FFF7A6FF416841F002014160606840F01E
:10D200000100606010BD10B5044600F024F84168CC
:10D2100021F002014160606820F00100606010BDF3
:10D2200070B506460D46084600F015F8040010D00B
:10D230002079C0070BD0686880080BD021463046A3
:10D2400000F03CF821462846FFF72AFF054628460D
:10D2500070BDFEE7FEE7426800F1080122F003001E
:10D26000001F0844910800D1FEE7704770B50646DC
:10D270000C004FF000001ED0F2B120791546C00717
:10D280001BD011462046FFF71CFF78B129462046E7
:10D2900000F025F805462046FFF752FF686829464A
:10D2A00040F0020068603046FFF715FF2046FFF7A8
:10D2B000AAFF04F1080070BDFEE7FEE77CB5054655
:10D2C00048680C4620F0030001AA69461CF008FBE0
:10D2D000DDE90023214628461DF082FC7CBD2DE9B6
:10D2E000F0410D46044600F10801281F0E18606841
:10D2F00006F1080720F00300401BA0F1040838469F
:10D300000421FFF702FB874200D0FEE7606820F0AF
:10D31000030108EB0500001D814200D0FEE73079D3
:10D3200000F0030040EA0800706020F003000C28C1
:10D3300000D2FEE7207900F0030028436060304609
:10D34000FFF754FF3046BDE8F08138B5044612F0CF
:10D35000F1FB054612F023FC0028204605D0218F62
:10D36000E18617F0CDF9012038BD10F0ABFD0028A3
:10D3700020461ED010F072FC218FE08E81420CD02E
:10D380002087E08E00906A461C21204610F0DCFFCA
:10D390000128E9D1204617F0B3F9284612F00BFC1A
:10D3A0000428E0D1204615F087FD002111F078FC1B
:10D3B000D9E710F0E3FDD6E770B510F0C1FF0546E0
:10D3C00015F0C0FD044628460CF08AF901462046B7
:10D3D000BDE8704000221AF0A7BC00002DE9F04F14
:10D3E0000D4687B00446002115F09AFC60B329462B
:10D3F000204600F061FA2946204600F06FF800212F
:10D40000204616F0B5FB05900021204616F058FC8A
:10D4100004900021204616F07CFA012800D000205C
:10D4200080460021204616F09BFD0746002120463D
:10D4300016F0EAFA42F2D17906464F450BD1608CDC
:10D44000000508D4012707E007B02846BDE8F04FE3
:10D450001C2114F01BB90027204615F0DFFCDFF873
:10D4600078A0834620460021BAF8042016F082FCFA
:10D47000D5F810C0AB682968CDF800C0CDF80C8095
:10D48000CDE90131C2B239465846059B09F092FCFC
:10D4900028834E4504D1608C400501D4012600E06C
:10D4A0000026204615F0A0FC074620460021BAF8C9
:10D4B000082016F05FFCC2B2686900246B68E96856
:10D4C0008DE81B0031463846049B09F073FC6883E5
:10D4D00007B0BDE8F08F0000D40000202DE9F34F25
:10D4E00081B00C46019808F0E1FE0646019815F05F
:10D4F00095FC8246304601F000F82061400013F0B0
:10D500001FFF20602069400013F01AFF002541F63C
:10D510009A79A0603AE036F91510DFF82081494584
:10D5200033D10027DFF818B11FE03946019815F014
:10D53000F7FB5946009016F034FEA8B9009808F0A1
:10D54000C7FE012810D1009808F0B8FEA8420BD100
:10D55000009816F0D6FD4146404501DA084602E043
:10D56000009816F0CEFD80467F1C019815F0EAFB6E
:10D57000B842DAD8B8F1000F03DBA16821F81580B2
:10D5800003E0A168002021F815006D1C2069A84265
:10D59000C1D800252F46284641F69B784A4615E01B
:10D5A00036F91010414504DB0D44A5F5F8559B3DB7
:10D5B0000BE0914204D1A16831F81010394403E026
:10D5C000A36823F8101039440FB2401C216981422E
:10D5D000E6D80021019816F0CBFA2169C1F10102C9
:10D5E00000FB02A0C01B00B2002800DA00200022CD
:10D5F0004FF0FF331146C44611E000BF36F91170F9
:10D6000067450BDBA7F5F8579B3F3AB200FB02F3E7
:10D61000B3FBF5F3A76827F811300B46491C2769BF
:10D620008F42EBD8002B07DBA91A4143B1FBF5F180
:10D63000401AA16821F81300BDE8FE8F01E0FFFF4A
:10D64000010006002DE9F14F00221146009817F065
:10D65000E7FF0021009816F095F904460021009894
:10D6600016F03AFB20440FFA80F90021009816F0DA
:10D6700037FA20440FFA80F8009816F0F7F800EB1C
:10D68000090101EB0800DFF898A006B254460098A3
:10D6900015F058FB074600252AE0009821498068CC
:10D6A000006850F82500834616F07BFDF8B958460F
:10D6B00017F07EF840BB0021584616F0FBF818B36F
:10D6C000012821D002281FD003281DD00021584650
:10D6D00016F05EFC58B9BBF81A10BBF81600081A11
:10D6E000401C00B24844A04200DB044624B26D1C3A
:10D6F000BD42D2D3544504D004EB080000B2B0427E
:10D7000000DC3046BDE8F88F0098BBF91A10B0F97C
:10D710001600081A411CA142E8DB0C46E6E70000AF
:10D7200001E0FFFF010004002DE9F84F00228046D0
:10D73000114617F05FFF0021404616F023F904461A
:10D740000021404616F074FA20440FFA80FA0021B6
:10D75000404616F025FA20440FFA80F9404616F0AC
:10D7600093F800EB090101EB0A00DFF844B105B2C0
:10D770005C46404615F0E6FA07460021404616F0A2
:10D78000B6F801284FF0000644D078E0D8F8080039
:10D790004849006850F82600009016F002FDC0BB12
:10D7A000009817F005F850B10098B8F91810B0F9C2
:10D7B0001400091A481CA0422ADB4C1C28E0002156
:10D7C000009816F077F858B1032809D0062807D03A
:10D7D000082805D00021009816F0D4FB58B118E0B5
:10D7E0000098B8F91810B0F91400081A411CA142A9
:10D7F0000EDB0C460CE00098143000900BF01BFA86
:10D800005044A04204DB00980BF015FA00EB0A0428
:10D8100024B2761CBE42B9D35C453BD004EB090070
:10D8200033E000BFD8F808002249006850F826000D
:10D83000009016F0B6FC08BB009816F0B9FF60BB6C
:10D840000021009816F036F838B3012825D00428B6
:10D8500023D0072821D00021009816F099FB68B941
:10D860000098143000900BF0E6F94844A04204DB25
:10D8700000980BF0E0F900EB090424B2761CBE42DC
:10D88000D0D35C4506D004EB0A0000B2584501D065
:10D89000A84200DC2846BDE8F88F0098B0F91810BF
:10D8A000B8F91400091A481CA042E6DB4C1CE4E756
:10D8B00001E0FFFF010004002DE9F84F0C4683460C
:10D8C00009F002F9064600F018FE6061400013F00E
:10D8D00037FD60606069400013F032FD002541F6BD
:10D8E0009A79E0603AE036F91500DFF8288148457A
:10D8F00033D10027DFF820A11FE03946584615F044
:10D900000FFA5146009016F04CFCA8B9009809F0A7
:10D9100063F9012810D1009809F054F9A8420BD1FD
:10D92000009815F0CEFA4146404501DA084602E07B
:10D93000009815F0C6FA80467F1C584615F002FA8A
:10D94000B842DAD8B8F1000F03DBE16821F815809E
:10D9500003E0E168002021F815006D1C6069A84211
:10D96000C1D800252F46284641F69B784A4615E047
:10D9700036F91010414504DB0D44A5F5F8559B3DE3
:10D980000BE0914204D1E16831F81010394403E012
:10D99000E36823F8101039440FB2401C61698142DA
:10D9A000E6D80021584616F08BF98146584615F006
:10D9B0001BFA01466069C0F1010209FB0210C01B9D
:10D9C00000B2002800DA002000224FF0FF33114699
:10D9D000C44610E036F9117067450BDBA7F5F85720
:10D9E0009B3F3AB200FB02F3B3FBF5F3E76827F87D
:10D9F00011300B46491C67698F42EBD8002B07DBBF
:10DA0000A91A4143B1FBF5F1401AE16821F813006E
:10DA1000BDE8F88F01E0FFFF010006001CB50B8890
:10DA200004892344ADF800304B8844892344ADF881
:10DA300002308B8804892344ADF80430C9884389B7
:10DA40001944ADF806104369694698471CBD0000AB
:10DA50002DE9FF4F89B0C8781A9CC0070D460028F1
:10DA600001D0F84800E0F848069001D0F74800E0FF
:10DA7000F748049001D1F54800E0F5484FF0100355
:10DA80004FF00C0E4FF0080BCDF814006188A288FF
:10DA90004FF0000AA1EB0201504609B25246D4F8F9
:10DAA00010C00FE002EB8207E66803EB870816F868
:10DAB00008805FEAC87809D00BEB8707F65B891B03
:10DAC00009B2521C9445EDD8002254E00EEB8707B2
:10DAD000F65B304400B2F4E7E66802EB820703EB42
